:020000040800F2
:10000000005000207D140008A9120008AF1200085B
:10001000B5120008BB120008C11200080000000061
:10002000000000000000000000000000C7120008EF
:10003000D312000800000000DF120008EB120008D5
:10004000C5140008C5140008C5140008C51400082C
:10005000C5140008C5140008C5140008C51400081C
:10006000C5140008C5140008C5140008C51400080C
:10007000C5140008C5140008C5140008C5140008FC
:10008000C5140008C5140008C5140008C5140008EC
:10009000C5140008C5140008C5140008C5140008DC
:1000A000C5140008C5140008C5140008C5140008CC
:1000B000F9120008C5140008C5140008C51400088A
:1000C000C5140008C5140008C5140008C5140008AC
:1000D000C5140008C5140008C5140008C51400089C
:1000E000C5140008C5140008C5140008000000006D
:1000F0000000000000000000000000000000000000
:0C01000000000000000000005FF808F1A3
:1001100010B5054C237833B9044B13B10448AFF341
:1001200000800123237010BD680000200000000043
:10013000305C000808B5034B1BB103490348AFF31B
:10014000008008BD000000006C000020305C00084A
:1001500070B54FF0FF0C4CF4E06C1CEA11541DBF5D
:100160001CEA135594EA0C0F95EA0C0F00F0DEF828
:100170002C4481EA030621EA4C5123EA4C5350EA0D
:10018000013518BF52EA033541F4801143F480135E
:1001900038D0A0FB02CE4FF00005E1FB02E506F0EF
:1001A0000042E0FB03E54FF00006E1FB03569CF044
:1001B000000F18BF4EF0010EA4F1FF04B6F5007F4A
:1001C00064F5407404D25FEA4E0E6D4146EB0606BC
:1001D00042EAC62141EA55514FEAC52040EA5E5045
:1001E0004FEACE2EB4F1FD0C88BFBCF5E06F1ED8EF
:1001F000BEF1004F08BF5FEA500E50F1000041EB26
:10020000045170BD06F0004646EA010140EA0200D2
:1002100081EA0301B4EB5C04C2BFD4EB0C0541EAF4
:10022000045170BD41F480114FF0000E013C00F309
:10023000AB8014F1360FDEBF002001F0004170BD2D
:10024000C4F10004203C35DA0C341BDC04F1140446
:10025000C4F1200500FA05F320FA04F001FA05F2D2
:1002600040EA020001F0004221F0004110EBD3709F
:1002700021FA04F642EB06015EEA430E08BF20EACB
:10028000D37070BDC4F10C04C4F1200500FA04F36E
:1002900020FA05F001FA04F240EA020001F0004100
:1002A00010EBD37041F100015EEA430E08BF20EA73
:1002B000D37070BDC4F1200500FA05F24EEA020EBB
:1002C00020FA04F301FA05F243EA020321FA04F0EA
:1002D00001F0004121FA04F220EA020000EBD370A1
:1002E0005EEA430E08BF20EAD37070BD94F0000FA1
:1002F0000FD101F00046400041EB010111F4801FD5
:1003000008BF013CF7D041EA060195F0000F18BF85
:10031000704703F00046520043EB030313F4801FC1
:1003200008BF013DF7D043EA0603704794EA0C0F7B
:100330000CEA135518BF95EA0C0F0CD050EA410691
:1003400018BF52EA4306D1D181EA030101F000410E
:100350004FF0000070BD50EA410606BF1046194636
:1003600052EA430619D094EA0C0F02D150EA013642
:1003700013D195EA0C0F05D152EA03361CBF104683
:1003800019460AD181EA030101F0004141F0FE4122
:1003900041F470014FF0000070BD41F0FE4141F4A6
:1003A000780170BD81F0004102E000BF83F000439E
:1003B00030B54FEA41044FEA430594EA050F08BF00
:1003C00090EA020F1FBF54EA000C55EA020C7FEAC4
:1003D000645C7FEA655C00F0E2804FEA5454D4EB41
:1003E0005555B8BF6D420CDD2C4480EA020281EA0B
:1003F000030382EA000083EA010180EA020281EA43
:100400000303362D88BF30BD11F0004F4FEA013194
:100410004FF4801C4CEA113102D0404261EB4101A3
:1004200013F0004F4FEA03334CEA133302D0524229
:1004300063EB430394EA050F00F0A780A4F10104E5
:10044000D5F1200E0DDB02FA0EFC22FA05F280181F
:1004500041F1000103FA0EF2801843FA05F3594105
:100460000EE0A5F120050EF1200E012A03FA0EFC84
:1004700028BF4CF0020C43FA05F3C01851EBE371AE
:1004800001F0004507D54FF0000EDCF1000C7EEBCB
:1004900000006EEB0101B1F5801F1BD3B1F5001F09
:1004A0000CD349085FEA30004FEA3C0C04F1010428
:1004B0004FEA445212F5800F80F09A80BCF1004F51
:1004C00008BF5FEA500C50F1000041EB045141EAD3
:1004D000050130BD5FEA4C0C404141EB0101013C9C
:1004E00028BFB1F5801FE9D291F0000F04BF01468B
:1004F0000020B1FA81F308BF2033A3F10B03B3F15D
:1005000020020CDA0C3208DD02F1140CC2F10C02EC
:1005100001FA0CF021FA02F10CE002F11402D8BF4A
:10052000C2F1200C01FA02F120FA0CFCDCBF41EA16
:100530000C019040E41AA2BF01EB0451294330BDE5
:100540006FEA04041F3C1CDA0C340EDC04F11404C2
:10055000C4F1200220FA04F001FA02F340EA030099
:1005600021FA04F345EA030130BDC4F10C04C4F1DF
:10057000200220FA02F001FA04F340EA03002946BF
:1005800030BD21FA04F0294630BD94F0000F83F409
:10059000801306BF81F480110134013D4EE77FEAEC
:1005A000645C18BF7FEA655C29D094EA050F08BF38
:1005B00090EA020F05D054EA000C04BF1946104619
:1005C00030BD91EA030F1EBF0021002030BD5FEA5D
:1005D000545C05D14000494128BF41F0004130BD85
:1005E00014F580043CBF01F5801130BD01F00045D9
:1005F00045F0FE4141F470014FF0000030BD7FEA4C
:10060000645C1ABF194610467FEA655C1CBF0B4646
:10061000024650EA013406BF52EA033591EA030F5D
:1006200041F4002130BD00BF90F0000F04BF002155
:10063000704730B54FF4806404F132044FF0000588
:100640004FF0000150E700BF90F0000F04BF002101
:10065000704730B54FF4806404F1320410F0004567
:1006600048BF40424FF000013EE700BF42004FEA62
:10067000E2014FEA31014FEA02701FBF12F07F43DF
:1006800093F07F4F81F06051704732F07F4208BF96
:10069000704793F07F4F04BF41F40021704730B59D
:1006A0004FF4607401F0004521F000411CE700BFE9
:1006B00050EA010208BF704730B54FF000050AE06C
:1006C00050EA010208BF704730B511F0004502D56D
:1006D000404261EB41014FF4806404F132045FEA6F
:1006E000915C3FF4D8AE4FF003025FEADC0C18BF18
:1006F00003325FEADC0C18BF033202EBDC02C2F10A
:10070000200300FA03FC20FA02F001FA03FE40EA9B
:100710000E0021FA02F11444BDE600BF4A0011D2D6
:1007200012F5001211D20DD56FF47873B3EB62524B
:100730000ED44FEAC12343F0004343EA505323FA57
:1007400002F070474FF00000704750EA013002D1CC
:100750004FF0FF3070474FF00000704780B588B011
:1007600004AF78600B46FB707B6818687B681B7968
:100770005B001BB243F001031BB299B2FB789AB243
:100780004FF47A7302930223019307F10C03009351
:10079000012302F079F83B7B1B021AB27B7B1BB270
:1007A00013431BB2FB81FB8918461037BD4680BD41
:1007B00080B588B004AF78600B46FB7013463B8071
:1007C0003B881B0A9BB2DBB23B733B88DBB27B737B
:1007D0007B6818687B681B799BB25B0099B2FB78D9
:1007E0009AB24FF47A7302930223019307F10C0338
:1007F0000093012301F04EFF00BF1037BD4680BDBE
:1008000080B584B000AF786002217868FFF7A6FF5A
:100810000346FB81FB8918461037BD4680BD80B575
:1008200084B000AF786001217868FFF797FF034636
:10083000FB81FB8918461037BD4680BD80B584B06A
:1008400000AF786004217868FFF788FF0346FB81DA
:10085000B7F90E3018461037BD4680BD80B584B05C
:1008600000AF786003217868FFF778FF0346FB81CB
:10087000B7F90E3018461037BD4680BD80B584B03C
:1008800000AF78607868FFF7BBFF0346FB81FB8908
:10089000DB089BB29B009BB218461037BD4680BD5B
:1008A00080B584B000AF78607868FFF7B8FF034682
:1008B000FB81B7F90E301846FFF7C6FE08A3D3E94F
:1008C0000023FFF745FC02460B4610461946FFF78A
:1008D00025FF03469BB218461037BD4680BD00BFBA
:1008E0007B14AE47E17A843F80B584B000AF786076
:1008F0007868FFF7A3FF0346FB81B7F90E30064A7D
:10090000B2F9002093FBF2F3FB81B7F90E301846E1
:100910001037BD4680BD00BF8600002080B584B082
:1009200000AF78607868FFF799FF0346FB81FB8989
:10093000064AB2F9002092B202FB03F39BB2FB819C
:10094000B7F90E3018461037BD4680BD880000202C
:1009500080B582B000AF78604FF400420021786823
:10096000FFF726FF642000F011FE00BF0837BD46E8
:1009700080BD80B582B000AF78600B467B807B88FD
:100980001A4605217868FFF713FF00BF0837BD46F8
:1009900080BD80B582B000AF78600B467B807B88DD
:1009A0001A4600217868FFF703FF00BF0837BD46ED
:1009B00080BD000080B584B000AF786040F29F1326
:1009C000FB810C4B4FF480521A800B4B05221A808E
:1009D0000A4B04221A80074B1B8819467868FFF7D8
:1009E000C8FFFB8919467868FFF7D3FF00BF1037AF
:1009F000BD4680BD840000208600002088000020C5
:100A000080B586B000AFF860B9601346FB71FB6833
:100A1000BA681A60FB68FA791A71104B00221A80C2
:100A20000F4B00221A80FB799BB25B0099B2022324
:100A30000322B86802F090F90346FB75FB7D002B9A
:100A400007D1F868FFF784FFF868FFF7B3FF0123C9
:100A500000E0002318461837BD4680BD8600002000
:100A60008800002080B582B000AF78607B681A688B
:100A7000074B1B689A4207D14FF40061054801F00B
:100A8000ABFC054B01221A7000BF0837BD4680BD84
:100A900010010020000C0140F801002080B582B058
:100AA00000AF00F011FD00F097F800F0F3F900F04E
:100AB000E3F800F01FF900F099F900F0C1F900F037
:100AC00047F905E000224FF48051344801F06CFCF6
:100AD000402233493348FFF793FF0346002BF1D000
:100AE00001224FF480512D4801F05EFC2E4803F0A6
:100AF000E1FB2C48FFF7C2FE03461AB22B4B1A80CB
:100B00002848FFF7CDFE03461AB2294B1A80254824
:100B1000FFF7EAFE03461A46264B1A802148FFF7E4
:100B2000FDFE03461A46244B1A8000F00DFA786049
:100B3000224B1B78002BF8D01C4BB3F90030194620
:100B40001F4804F0F7F91A4BB3F9003019461D4855
:100B500004F0F0F9174BB3F9003019461A4804F0C5
:100B6000E9F9154BB3F900301946184804F0E2F9D9
:100B70007B68174AA2FB032359097A68144BA3FB2D
:100B800002035B09642000FB03F3D31A1A461148E1
:100B900004F0D0F9094B00221A70C6E7000C01409E
:100BA000BC000020E801002010010020F00100201E
:100BB000F2010020F4010020F6010020F8010020DD
:100BC000485C0008585C0008685C0008785C000815
:100BD0001F85EB51885C000880B594B000AF07F129
:100BE000280328220021184604F0F9F907F114031C
:100BF00000221A605A609A60DA601A613B1D002276
:100C00001A605A609A60DA600223BB620123BB63F8
:100C10001023FB6300237B6407F12803184602F0CE
:100C20007DFD0346002B01D000F0E4F90F237B612A
:100C30000023BB610023FB6100233B6200237B6236
:100C400007F114030021184602F0EAFF0346002BC7
:100C500001D000F0CFF902237B600023FB603B1D35
:100C6000184603F06BF90346002B01D000F0C2F9DF
:100C700000BF5037BD4680BD80B584B000AF3B1D7E
:100C800000221A605A609A60184B194A1A60174B72
:100C900000229A60154B00221A73144B00221A7519
:100CA000124B4FF46022DA61104B00225A600F4B56
:100CB00001221A610D4800F08DFC0346002B01D083
:100CC00000F098F900237B600123BB600023FB60E8
:100CD0003B1D1946054800F041FF0346002B01D09B
:100CE00000F088F900BF1037BD4680BD8C000020A1
:100CF0000024014080B500AF124B134A1A60114B1B
:100D0000124A5A600F4B00229A600E4B0022DA60A2
:100D10000C4B4FF480421A610A4B00225A61094B76
:100D200000229A61074B0022DA61064B00221A6208
:100D3000044801F06BFB0346002B01D000F05AF988
:100D400000BF80BDBC00002000540040A086010010
:100D500080B586B000AF07F1080300221A605A6020
:100D60009A60DA603B4600221A605A601E4B4FF0D0
:100D700080421A601C4B48F69F425A601A4B002270
:100D80009A60194B40F2CF72DA60174B00221A6159
:100D9000154B00229A61144803F03CFA0346002BDD
:100DA00001D000F027F94FF48053BB6007F108032E
:100DB00019460D4803F0D8FB0346002B01D000F084
:100DC00019F900233B6000237B603B461946064827
:100DD00003F0AEFD0346002B01D000F00BF900BF7D
:100DE0001837BD4680BD00BF1001002080B500AFA0
:100DF000114B124A1A60104B4FF4E1325A600E4BFD
:100E000000229A600C4B0022DA600B4B00221A6120
:100E1000094B0C225A61084B00229A61064B0022B2
:100E2000DA61054803F0F4FD0346002B01D000F021
:100E3000E1F800BF80BD00BF58010020003801402C
:100E400080B500AF114B124A1A60104B4FF4E132DB
:100E50005A600E4B00229A600C4B0022DA600B4B5A
:100E600000221A61094B0C225A61084B00229A6138
:100E7000064B0022DA61054803F0CAFD0346002B49
:100E800001D000F0B7F800BF80BD00BFA001002076
:100E90000044004080B586B000AF07F1080300228F
:100EA0001A605A609A60DA60244B9B69234A43F0C7
:100EB00004039361214B9B6903F004037B607B680F
:100EC0001E4B9B691D4A43F0080393611B4B9B69B2
:100ED00003F008033B603B6801224FF4E0511848DF
:100EE00001F062FA0223BB600023FB6000233B6138
:100EF00007F108031946124801F0D2F84FF4E05305
:100F0000BB600123FB6000233B6102237B6107F18F
:100F1000080319460A4801F0C3F84FF40053BB60B8
:100F2000084BFB6000233B6107F1080319460448A6
:100F300001F0B6F800BF1837BD4680BD0010024072
:100F4000000C01400000111080B584B000AF00F02B
:100F500037F8F860FB684FF4FA7203FB02F2174BA4
:100F6000A3FB0213D21A52081344DB0ABB60FA68CF
:100F700013469B009918114BA3FB0123CA1A520870
:100F80001344DA0A13461B039B1ACA1A642303FB91
:100F900002F20A4BA3FB0213D21A52081344DB0AD3
:100FA0007B60BB68642202FB03F37A6813443B60F6
:100FB0003B6818461037BD4680BD00BF01011000D8
:100FC00080B582B000AF0A4800F0DCFB4FF4FA6154
:100FD000074800F0B1FC064800F0B4FD7860044812
:100FE00000F07EFC7B6818460837BD4680BD00BF18
:100FF0008C00002080B400AF72B600BFFEE7000096
:1010000080B485B000AF154B9B69144A43F00103CF
:101010009361124B9B6903F00103BB60BB680F4BEC
:10102000DB690E4A43F08053D3610C4BDB6903F05C
:1010300080537B607B680A4B5B68FB60FB6823F036
:10104000E063FB60FB6843F08063FB60044AFB687D
:10105000536000BF1437BD4680BC7047001002408B
:101060000000014080B588B000AF786007F1100340
:1010700000221A605A609A60DA607B681B68144A22
:10108000934221D1134B9B69124A43F4007393613D
:10109000104B9B6903F40073FB60FB680D4B9B696D
:1010A0000C4A43F0040393610A4B9B6903F0040369
:1010B000BB60BB6801233B6103237B6107F1100325
:1010C0001946054800F0ECFF00BF2037BD4680BD43
:1010D00000240140001002400008014080B588B0A3
:1010E00000AF786007F1100300221A605A609A601E
:1010F000DA607B681B68154A934223D1144B9B69C5
:10110000134A43F008039361114B9B6903F00803F2
:10111000FB60FB68C0233B6112237B610323FB61FF
:1011200007F1100319460B4800F0BAFF084BDB69C2
:10113000074A43F40013D361054BDB6903F4001342
:10114000BB60BB6800BF2037BD4680BD0054004077
:1011500000100240000C014080B584B000AF786000
:101160007B681B68B3F1804F13D10C4BDB690B4AD2
:1011700043F00103D361094BDB6903F00103FB601A
:10118000FB68002200211C2000F053FF1C2000F00F
:101190006CFF00BF1037BD4680BD00BF001002408D
:1011A00080B58AB000AF786007F1180300221A609A
:1011B0005A609A60DA607B681B68374A934232D182
:1011C000364B9B69354A43F480439361334B9B69AB
:1011D00003F480437B617B69304B9B692F4A43F06A
:1011E000040393612D4B9B6903F004033B613B694E
:1011F0004FF40073BB610223FB6103237B6207F1A1
:1012000018031946264800F04BFF4FF48063BB617A
:101210000023FB6100233B6207F1180319462048B5
:1012200000F03EFF34E07B681B681E4A93422FD1DA
:101230001A4BDB69194A43F40033D361174BDB695E
:1012400003F40033FB60FB68144B9B69134A43F0C3
:1012500004039361114B9B6903F00403BB60BB68FB
:101260000423BB610223FB6103237B6207F11803A4
:1012700019460B4800F014FF0823BB610023FB61F3
:1012800000233B6207F118031946054800F008FFE8
:1012900000BF2837BD4680BD003801400010024025
:1012A000000801400044004080B400AFFEE780B475
:1012B00000AFFEE780B400AFFEE780B400AFFEE70A
:1012C00080B400AFFEE780B400AF00BFBD4680BC75
:1012D000704780B400AF00BFBD4680BC704780B48B
:1012E00000AF00BFBD4680BC704780B500AF00F0C6
:1012F00031F900BF80BD000080B500AF024803F0A7
:101300002BF800BF80BD00BF1001002080B586B063
:1013100000AFF860B9607A6000237B610AE0AFF348
:1013200000800146BB685A1CBA60CAB21A707B6959
:1013300001337B617A697B689A42F0DB7B681846EF
:101340001837BD4680BD80B586B000AFF860B96083
:101350007A6000237B6109E0BB685A1CBA601B7885
:10136000184600F079F87B6901337B617A697B6804
:101370009A42F1DB7B6818461837BD4680BD80B4C1
:1013800083B000AF78604FF0FF3318460C37BD468E
:1013900080BC704780B483B000AF786039603B6830
:1013A0004FF400525A60002318460C37BD4680BCEB
:1013B000704780B483B000AF7860012318460C37C3
:1013C000BD4680BC704780B485B000AFF860B9609E
:1013D0007A60002318461437BD4680BC7047000071
:1013E00080B586B000AF7860144A154BD31A7B6184
:1013F0007B693B61134B1B68002B02D1114B124AD6
:101400001A60104B1A687B6813443A699A4207D2F3
:1014100003F034FE03460C221A604FF0FF3309E05C
:10142000084B1B68FB60074B1A687B681344054A2E
:101430001360FB6818461837BD4680BD0050002079
:1014400000040000FC0100205003002080B400AF25
:1014500000BFBD4680BC704780B582B000AF7860E9
:10146000391D4FF0FF330122034803F021FB7B6855
:1014700018460837BD4680BD58010020FFF7E6FF3B
:101480000B480C490C4A002302E0D458C4500433E2
:10149000C4188C42F9D3094A094C002301E01360B7
:1014A0000432A242FBD303F0EFFDFFF7F7FA7047D7
:1014B0000000002068000020145D00086800002083
:1014C00050030020FEE7000080B500AF084B1B680A
:1014D000074A43F010031360032000F09FFD0F2024
:1014E00000F008F8FFF78CFD0023184680BD00BF10
:1014F0000020024080B582B000AF7860124B1A68BD
:10150000124B1B7819464FF47A73B3FBF1F3B2FB1D
:10151000F3F3184600F0B7FD0346002B01D001237A
:101520000EE07B680F2B0AD8002279684FF0FF305D
:1015300000F07FFD064A7B681360002300E0012372
:1015400018460837BD4680BD000000200800002076
:101550000400002080B400AF054B1B781A46054BF1
:101560001B681344034A136000BFBD4680BC70472C
:10157000080000200002002080B400AF024B1B686E
:101580001846BD4680BC70470002002080B584B07C
:1015900000AF7860FFF7F0FFB8607B68FB60FB6826
:1015A000B3F1FF3F05D00A4B1B781A46FB68134482
:1015B000FB6000BFFFF7E0FF0246BB68D31AFA6882
:1015C0009A42F7D800BF00BF1037BD4680BD00BFAC
:1015D0000800002080B586B000AF78600023FB755E
:1015E00000233B610023BB600023FB607B68002B72
:1015F00001D10123BEE07B689B68002B7B689B6A5E
:10160000002B09D17B680022DA627B68002283F814
:1016100024207868FFF726FD786800F0F1FB034688
:10162000FB757B689B6A03F01003002B40F09980E8
:10163000FB7D002B40F095807B689B6A23F48853E8
:1016400023F0020343F002027B689A627B685A68C7
:101650007B68DB691A437B681B7B5B001343BA68BA
:101660001343BB607B689B68B3F5807F03D07B68C6
:101670009B68012B02D14FF4807300E000233A698C
:1016800013433B617B681B7D012B19D17B681B7B5E
:10169000002B09D17B689B69013B5A033B691343CB
:1016A00043F400633B610BE07B689B6A43F02002DC
:1016B0007B689A627B68DB6A43F001027B68DA62CE
:1016C0007B681B685B6823F469417B681B683A6927
:1016D0000A435A607B681B689A68284B13407A68F3
:1016E0001268B9680B4393607B689B68B3F5807F91
:1016F00003D07B689B68012B04D17B681B69013B8D
:101700001B05FB607B681B68DB6A23F470017B6848
:101710001B68FA680A43DA627B681B689A68184B90
:101720001340BA689A420BD17B680022DA627B6868
:101730009B6A23F0030343F001027B689A6218E07E
:101740007B689B6A23F0120343F010027B689A6265
:101750007B68DB6A43F001027B68DA620123FB7578
:1017600007E07B689B6A43F010027B689A62012362
:10177000FB75FB7D18461837BD4680BDFDF7E1FFC0
:10178000FE0E1FFF80B584B000AF78600023FB73AE
:101790007B6893F82430012B01D1022398E07B6809
:1017A000012283F82420786800F0D0FA0346FB7306
:1017B000FB7B002B40F087807B689B6A23F440739F
:1017C00023F0010343F480727B689A627B681B6894
:1017D000414A934205D1414B5B6803F47023002BCF
:1017E00015D17B689B6A23F480127B689A627B68C0
:1017F0001B685B6803F48063002B26D07B689B6AC0
:1018000023F4405343F480527B689A621DE07B6866
:101810009B6A43F480127B689A627B681B682F4A3C
:10182000934204D07B681B682B4A93420DD12B4B0B
:101830005B6803F48063002B07D07B689B6A23F40A
:10184000405343F480527B689A627B689B6A03F43E
:101850008053002B06D07B68DB6A23F006027B688E
:10186000DA6202E07B680022DA627B68002283F899
:1018700024207B681B686FF002021A607B681B687B
:101880009B6803F46023B3F5602F13D17B681B685A
:10189000114A934205D1114B5B6803F47023002B6E
:1018A00008D17B681B689A687B681B6842F4A002B9
:1018B0009A600CE07B681B689A687B681B6842F43E
:1018C00080129A6003E07B68002283F82420FB7B6F
:1018D00018461037BD4680BD002801400024014055
:1018E00080B584B000AF78600023FB737B6893F809
:1018F0002430012B01D102231AE07B68012283F8F6
:101900002420786800F07CFA0346FB73FB7B002BF5
:1019100009D17B689B6A23F4885323F0010343F0C9
:1019200001027B689A627B68002283F82420FB7B9B
:1019300018461037BD4680BD90B587B000AF7860BF
:10194000396000237B610023FB6000233B61FFF7CC
:1019500013FE78617B681B689B6803F48073002B1F
:101960000BD07B689B6A43F020027B689A627B689D
:10197000002283F824200123D3E07B681B685B6886
:1019800003F48073002B31D17B681B68DB6A03F49E
:101990007003002B2AD121E03B68B3F1FF3F1DD03B
:1019A0003B68002B07D0FFF7E7FD02467B69D31A9F
:1019B0003A689A4212D27B681B681B6803F00203E4
:1019C000002B0BD17B689B6A43F004027B689A6210
:1019D0007B68002283F824200323A2E07B681B6835
:1019E0001B6803F00203002BD6D070E04F4B1C683D
:1019F000022002F059FB0346B4FBF3F27B681B683C
:101A000019694B4B0B40002B18D17B681B68D968B8
:101A1000484B0B40002B11D17B681B681969464B62
:101A20000B40002B08D17B681B68D968434B0B40E7
:101A3000002B01D1142320E029231EE07B681B68C2
:101A400019693D4B0B40002B06D17B681B68D96898
:101A50003A4B0B40002B0DD07B681B681969384B43
:101A60000B40002B08D17B681B68D968344B0B40B6
:101A7000002B01D1542300E0FC2302FB03F33B6164
:101A800021E03B68B3F1FF3F1AD03B68002B07D041
:101A9000FFF772FD02467B69D31A3A689A420FD269
:101AA000FB683A699A420BD97B689B6A43F004024F
:101AB0007B689A627B68002283F82420032330E04D
:101AC000FB680133FB60FB683A699A42D9D87B68AE
:101AD0001B686FF012021A607B689B6A43F4007205
:101AE0007B689A627B681B689B6803F46023B3F58C
:101AF000602F15D17B681B7B002B11D17B689B6A03
:101B000023F480727B689A627B689B6A03F480533B
:101B1000002B05D17B689B6A43F001027B689A62C7
:101B2000002318461C37BD4690BD00BF00000020B2
:101B30002449922424499200922449129224490073
:101B40004992240080B483B000AF78607B681B6842
:101B5000DB6C18460C37BD4680BC704780B485B03E
:101B600000AF786039600023FB730023BB607B68A3
:101B700093F82430012B01D10223DCE07B680122A1
:101B800083F824203B685B68062B1CD87B681B68A5
:101B9000596B3B685A6813469B001344053B1F2250
:101BA00002FA03F3DB4319403B6818683B685A6844
:101BB00013469B001344053B00FA03F27B681B6845
:101BC0000A435A633CE03B685B680C2B1CD87B687B
:101BD0001B68196B3B685A6813469B001344233BF0
:101BE0001F2202FA03F3DB4319403B6818683B6885
:101BF0005A6813469B001344233B00FA03F27B68A8
:101C00001B680A431A631BE07B681B68D96A3B6840
:101C10005A6813469B001344413B1F2202FA03F308
:101C2000DB4319403B6818683B685A6813469B00C1
:101C30001344413B00FA03F27B681B680A43DA62F3
:101C40003B681B68092B1CD97B681B68D9683B68FB
:101C50001A6813465B0013441E3B072202FA03F383
:101C6000DB4319403B6898683B681A6813465B0081
:101C700013441E3B00FA03F27B681B680A43DA60D8
:101C800019E07B681B6819693B681A6813465B009A
:101C90001344072202FA03F3DB4319403B689868B8
:101CA0003B681A6813465B00134400FA03F27B6832
:101CB0001B680A431A613B681B68102B03D03B6802
:101CC0001B68112B32D17B681B681D4A934225D1BA
:101CD0007B681B689B6803F40003002B26D17B689C
:101CE0001B689A687B681B6842F400029A603B6834
:101CF0001B68102B1AD1134B1B68134AA2FB03233A
:101D00009A0C13469B0013445B00BB6002E0BB6867
:101D1000013BBB60BB68002BF9D107E07B689B6A85
:101D200043F020027B689A620123FB737B680022E8
:101D300083F82420FB7B18461437BD4680BC7047CF
:101D4000002401400000002083DE1B4380B584B0E6
:101D500000AF78600023FB600023BB607B681B68DA
:101D60009B6803F00103012B40D07B681B689A68D5
:101D70007B681B6842F001029A601F4B1B681F4A78
:101D8000A2FB03239B0CBB6002E0BB68013BBB6072
:101D9000BB68002BF9D1FFF7EFFBF8601FE0FFF7FE
:101DA000EBFB0246FB68D31A022B18D97B681B6831
:101DB0009B6803F00103012B11D07B689B6A43F001
:101DC00010027B689A627B68DB6A43F001027B68E1
:101DD000DA627B68002283F82420012307E07B6815
:101DE0001B689B6803F00103012BD8D10023184620
:101DF0001037BD4680BD00BF0000002083DE1B43BE
:101E000080B584B000AF78600023FB607B681B68FE
:101E10009B6803F00103012B2ED17B681B689A6835
:101E20007B681B6822F001029A60FFF7A5FBF8604F
:101E30001BE0FFF7A1FB0246FB68D31A022B14D963
:101E40007B681B689B6803F00103012B0DD17B6845
:101E50009B6A43F010027B689A627B68DB6A43F0FE
:101E600001027B68DA62012307E07B681B689B68DC
:101E700003F00103012BDCD0002318461037BD46C8
:101E800080BD000080B485B000AF78607B6803F04F
:101E90000703FB600C4BDB68BB60BA684FF6FF03BF
:101EA0001340BB60FB681A02BB68134343F0BF6377
:101EB00043F40033BB60044ABB68D36000BF1437EF
:101EC000BD4680BC704700BF00ED00E080B400AFAD
:101ED000044BDB681B0A03F007031846BD4680BCB1
:101EE000704700BF00ED00E080B483B000AF034650
:101EF000FB7197F90730002B0BDBFB7903F01F0216
:101F0000064997F907305B09012000FA02F241F80F
:101F1000232000BF0C37BD4680BC704700E100E0C5
:101F200080B483B000AF03463960FB7197F9073086
:101F3000002B0ADB3B68DAB20C4997F90730120133
:101F4000D2B20B4483F800230AE03B68DAB20849B6
:101F5000FB7903F00F03043B1201D2B20B441A7653
:101F600000BF0C37BD4680BC704700BF00E100E0F9
:101F700000ED00E080B489B000AFF860B9607A602D
:101F8000FB6803F00703FB61FB69C3F10703042B44
:101F900028BF0423BB61FB690433062B02D9FB690C
:101FA000033B00E000237B614FF0FF32BB6902FA84
:101FB00003F3DA43BB681A407B699A404FF0FF3164
:101FC0007B6901FA03F3D9437B680B40134318463E
:101FD0002437BD4680BC704780B582B000AF7860C2
:101FE0007B68013BB3F1807F01D301230FE00A4AF4
:101FF0007B68013B53600F214FF0FF30FFF790FFEC
:10200000054B00229A60044B07221A6000231846F1
:102010000837BD4680BD00BF10E000E080B582B04B
:1020200000AF78607868FFF72DFF00BF0837BD4626
:1020300080BD80B586B000AF0346B9607A60FB739F
:1020400000237B61FFF742FF78617A68B96878699D
:10205000FFF790FF024697F90F3011461846FFF739
:102060005FFF00BF1837BD4680BD80B582B000AFAE
:102070000346FB7197F907301846FFF735FF00BF9D
:102080000837BD4680BD80B582B000AF7860786803
:10209000FFF7A2FF034618460837BD4680BD000083
:1020A00080B48BB000AF7860396000237B6200237E
:1020B0003B6269E101227B6A02FA03F3FB613B6840
:1020C0001B68FA691340BB61BA69FB699A4240F028
:1020D00058813B685B689A4A93425ED0984A934223
:1020E00075D8984A934258D0964A93426FD8964AE8
:1020F000934252D0944A934269D8944A93424CD026
:10210000924A934263D8924A934246D0904A93426D
:102110005DD8122B2AD8122B59D801A252F823F0DD
:102120009B2100087521000887210008C9210008AB
:10213000CF210008CF210008CF210008CF210008BF
:10214000CF210008CF210008CF210008CF210008AF
:10215000CF210008CF210008CF210008CF2100089F
:10216000CF2100087D21000891210008794A93427F
:1021700013D02CE03B68DB683B6229E03B68DB68FE
:1021800004333B6224E03B68DB6808333B621FE0BA
:102190003B68DB680C333B621AE03B689B68002BB2
:1021A00002D104233B6213E03B689B68012B05D1FD
:1021B00008233B627B68FA691A6109E008233B62E5
:1021C0007B68FA695A6103E000233B6200E000BFCC
:1021D000BB69FF2B01D87B6801E07B6804337B611E
:1021E000BB69FF2B02D87B6A9B0002E07B6A083B3D
:1021F0009B003B617B691A680F213B6901FA03F37D
:10220000DB431A40396A3B6901FA03F31A437B69DD
:102210001A603B685B6803F08053002B00F0B180CC
:102220004D4B9B694C4A43F0010393614A4B9B69B8
:1022300003F00103BB60BB68484A7B6A9B0802331A
:1022400052F82330FB607B6A03F003039B000F22EC
:1022500002FA03F3DB43FA681340FB607B68404AF1
:10226000934213D07B683F4A93420DD07B683E4A2D
:10227000934207D07B683D4A934201D1032306E095
:10228000042304E0022302E0012300E000237A6A31
:1022900002F0030292009340FA681343FB602F4957
:1022A0007B6A9B080233FA6841F823203B685B682D
:1022B00003F48013002B06D02D4B9A682C49BB6980
:1022C00013438B6006E02A4B9A68BB69DB432849BD
:1022D00013408B603B685B6803F40013002B06D04F
:1022E000234BDA682249BB691343CB6006E0204BDD
:1022F000DA68BB69DB431E491340CB603B685B680F
:1023000003F40033002B06D0194B5A681849BB69F7
:1023100013434B6006E0164B5A68BB69DB43144914
:1023200013404B603B685B6803F48033002B21D083
:102330000F4B1A680E49BB6913430B6021E000BFC5
:1023400000003210000031100000221000002110A7
:1023500000001210000011100010024000000140A7
:1023600000080140000C0140001001400014014031
:10237000000401400B4B1A68BB69DB430949134059
:102380000B607B6A01337B623B681A687B6A22FAC6
:1023900003F3002B7FF48EAE00BF00BF2C37BD4689
:1023A00080BC70470004014080B483B000AF786007
:1023B0000B467B8013467B707B78002B03D07A889A
:1023C0007B681A6103E07B881A047B681A6100BF8E
:1023D0000C37BD4680BC704780B485B000AF7860D4
:1023E0000B467B807B68DB68FB607A88FB68134068
:1023F0001A04FB68D9437B880B401A437B681A6137
:1024000000BF1437BD4680BC7047000080B584B063
:1024100000AF78607B68002B01D101232BE17B6842
:1024200093F83D30DBB2002B06D17B68002283F8A5
:102430003C207868FEF752FE7B68242283F83D201A
:102440007B681B681A687B681B6822F001021A60AF
:102450007B681B681A687B681B6842F400421A603C
:102460007B681B681A687B681B6822F400421A604C
:1024700001F01EFDF8607B685B68814A934207D8D3
:10248000FB68804A934294BF01230023DBB206E03D
:10249000FB687D4A934294BF01230023DBB2002BEB
:1024A00001D00123E7E0FB68784AA2FB03239B0CE1
:1024B000BB607B681B685B6823F03F017B681B681F
:1024C000BA680A435A607B681B681B6A23F03F01A5
:1024D0007B685B686A4A934202D8BB68013309E0B3
:1024E000BB684FF4967202FB03F3694AA2FB032315
:1024F0009B0901337A6812680B4313627B681B687F
:10250000DB6923F44F4222F0FF027B685B685C4981
:102510008B4219D8FB68591E7B685B685B00B1FB76
:10252000F3F3591C40F6FC730B40002B0AD0FB68F8
:10253000591E7B685B685B00B1FBF3F30133C3F3A7
:102540000B0351E004234FE07B689B68002B11D103
:10255000FB68581E7B6859680B465B000B44B0FB58
:10256000F3F30133C3F30B03002B0CBF0123002350
:10257000DBB212E0FB68581E7B6859680B469B0073
:102580000B4499000B44B0FBF3F30133C3F30B038B
:10259000002B0CBF01230023DBB2002B01D0012351
:1025A00022E07B689B68002B0ED1FB68581E7B687D
:1025B00059680B465B000B44B0FBF3F30133C3F3E4
:1025C0000B0343F400430FE0FB68581E7B68596817
:1025D0000B469B000B4499000B44B0FBF3F3013313
:1025E000C3F30B0343F44043796809681343CB6199
:1025F0007B681B681B6823F0C0017B68DA697B6815
:102600001B6A1A437B681B680A431A607B681B6855
:102610009B6823F4034323F0FF037A6811697A6807
:10262000D26811437A6812680B4393607B681B6819
:10263000DB6823F0FF017B685A697B689B691A435A
:102640007B681B680A43DA607B681B681A687B68D2
:102650001B6842F001021A607B6800221A647B68E2
:10266000202283F83D207B6800221A637B680022C9
:1026700083F83E20002318461037BD4680BD00BFBA
:10268000A08601007F841E00FF083D0083DE1B43FF
:10269000D34D621080B588B002AFF860084611468D
:1026A0001A4603467B810B463B811346FB80FEF7AF
:1026B00063FF7861FB6893F83D30DBB2202B40F07C
:1026C000D9807B690093192301226D49F86800F0D5
:1026D000EFFD0346002B01D00223CCE0FB6893F80A
:1026E0003C30012B01D10223C5E0FB68012283F8B5
:1026F0003C20FB681B681B6803F00103012B07D01B
:10270000FB681B681A68FB681B6842F001021A60CC
:10271000FB681B681A68FB681B6822F400621A6079
:10272000FB68212283F83D20FB68402283F83E208D
:10273000FB6800221A64FB683A6A5A62FB68BA8C2A
:102740005A85FB685B8D9AB2FB681A85FB684D4A17
:10275000DA62F8883A8979897B690193BB6A0093C8
:102760000346F86800F026FC0346002B52D00123F4
:1027700081E07A69B96AF86800F0B4FE0346002B7C
:102780000DD0FB681B6C042B07D1FB681B681A6813
:10279000FB681B6842F400721A6001236BE0FB685F
:1027A0005B6A1A78FB681B681A61FB685B6A5A1CD3
:1027B000FB685A62FB681B8D013B9AB2FB681A8565
:1027C000FB685B8D9BB2013B9AB2FB685A85FB6844
:1027D0001B685B6903F00403042B1BD1FB681B8D92
:1027E000002B17D0FB685B6A1A78FB681B681A61BC
:1027F000FB685B6A5A1CFB685A62FB681B8D013BD5
:102800009AB2FB681A85FB685B8D9BB2013B9AB25A
:10281000FB685A85FB681B8D002BAAD17A69B96ABF
:10282000F86800F0A7FE0346002B0DD0FB681B6C78
:10283000042B07D1FB681B681A68FB681B6842F40D
:1028400000721A60012316E0FB681B681A68FB68B7
:102850001B6842F400721A60FB68202283F83D2056
:10286000FB68002283F83E20FB68002283F83C20AE
:10287000002300E0022318461837BD4680BD00BF84
:10288000020010000000FFFF80B58CB002AFF860BE
:10289000084611461A4603467B810B463B81134688
:1028A000FB8000233B62FEF767FE7862FB6893F8CB
:1028B0003D30DBB2202B40F044827B6A0093192329
:1028C00001228249F86800F0F3FC0346002B01D096
:1028D000022337E2FB6893F83C30012B01D102233D
:1028E00030E2FB68012283F83C20FB681B681B6810
:1028F00003F00103012B07D0FB681B681A68FB6813
:102900001B6842F001021A60FB681B681A68FB68CA
:102910001B6822F400621A60FB68222283F83D20C3
:10292000FB68402283F83E20FB6800221A64FB68A3
:102930003A6B5A62FB68BA8E5A85FB685B8D9AB215
:10294000FB681A85FB68624ADA62F8883A897989F5
:102950007B6A0193BB6B00930346F86800F0C0FBF1
:102960000346002B01D00123ECE1FB681B8D002BFB
:1029700013D10023FB61FB681B685B69FB61FB688B
:102980001B689B69FB61FB69FB681B681A68FB6835
:102990001B6842F400721A60C0E1FB681B8D012BBA
:1029A0001ED1FB681B681A68FB681B6822F48062F2
:1029B0001A6072B600BF0023BB61FB681B685B69CD
:1029C000BB61FB681B689B69BB61BB69FB681B68DB
:1029D0001A68FB681B6842F400721A6062B635E040
:1029E000FB681B8D022B1ED1FB681B681A68FB68F5
:1029F0001B6842F400621A6072B600BF00237B615C
:102A0000FB681B685B697B61FB681B689B697B617A
:102A10007B69FB681B681A68FB681B6822F480628C
:102A20001A6062B612E0FB681B681A68FB681B68D4
:102A300042F480621A6000233B61FB681B685B699B
:102A40003B61FB681B689B693B613B6966E1FB6816
:102A50001B8D032B00F21F81FB681B8D012B23D1E3
:102A60007A6AB96BF86800F0CDFD0346002B01D0FF
:102A7000012367E1FB681B681A69FB685B6AD2B2D5
:102A80001A70FB685B6A5A1CFB685A62FB681B8DF4
:102A9000013B9AB2FB681A85FB685B8D9BB2013BD8
:102AA0009AB2FB685A8539E1FB681B8D022B52D123
:102AB0007B6A0093BB6B00220649F86800F0F8FBC4
:102AC0000346002B08D001233CE100BF02001000A8
:102AD0000000FFFF0400010072B600BFFB681B6826
:102AE0001A68FB681B6842F400721A60FB681B6876
:102AF0001A69FB685B6AD2B21A70FB685B6A5A1C7F
:102B0000FB685A62FB681B8D013B9AB2FB681A8511
:102B1000FB685B8D9BB2013B9AB2FB685A8562B63B
:102B200000BFFB681B681A69FB685B6AD2B21A7047
:102B3000FB685B6A5A1CFB685A62FB681B8D013B91
:102B40009AB2FB681A85FB685B8D9BB2013B9AB217
:102B5000FB685A85E2E07B6A0093BB6B00227B49ED
:102B6000F86800F0A5FB0346002B01D00123E9E043
:102B7000FB681B681A68FB681B6822F480621A6095
:102B800072B600BFFB681B681A69FB685B6AD2B249
:102B90001A70FB685B6A5A1CFB685A62FB681B8DE3
:102BA000013B9AB2FB681A85FB685B8D9BB2013BC7
:102BB0009AB2FB685A85664B1B68DB08654AA2FB24
:102BC00003231A0A13469B001344DA00D31A3B620C
:102BD0003B6A013B3B623B6A002B18D1FB68002239
:102BE0001A63FB68202283F83D20FB68002283F8EB
:102BF0003E20FB681B6C43F02002FB681A6462B63F
:102C000000BFFB68002283F83C2001239AE0FB68A8
:102C10001B685B6903F00403042BD9D1FB681B68B4
:102C20001A68FB681B6842F400721A60FB681B6834
:102C30001A69FB685B6AD2B21A70FB685B6A5A1C3D
:102C4000FB685A62FB681B8D013B9AB2FB681A85D0
:102C5000FB685B8D9BB2013B9AB2FB685A8562B6FA
:102C600000BFFB681B681A69FB685B6AD2B21A7006
:102C7000FB685B6A5A1CFB685A62FB681B8D013B50
:102C80009AB2FB681A85FB685B8D9BB2013B9AB2D6
:102C9000FB685A8542E07A6AB96BF86800F0B2FCCA
:102CA0000346002B01D001234CE0FB681B681A6926
:102CB000FB685B6AD2B21A70FB685B6A5A1CFB68DD
:102CC0005A62FB681B8D013B9AB2FB681A85FB6850
:102CD0005B8D9BB2013B9AB2FB685A85FB681B680F
:102CE0005B6903F00403042B18D1FB681B681A69A5
:102CF000FB685B6AD2B21A70FB685B6A5A1CFB689D
:102D00005A62FB681B8D013B9AB2FB681A85FB680F
:102D10005B8D9BB2013B9AB2FB685A85FB681B8DA9
:102D2000002B7FF494AEFB68202283F83D20FB68E3
:102D3000002283F83E20FB68002283F83C20002319
:102D400000E0022318462837BD4680BD040001007C
:102D50000000002089B5F81480B58AB002AFF86091
:102D60007A603B600B467B81FEF706FCF86100232E
:102D7000BB61FB6893F83D30DBB2202B40F0118142
:102D8000FB690093192301228849F86800F090FA42
:102D90000346002B01D0022304E1FB6893F83C308A
:102DA000012B01D10223FDE0FB68012283F83C20C6
:102DB000FB681B681B6803F00103012B07D0FB684D
:102DC0001B681A68FB681B6842F001021A60FB6806
:102DD0001B681A68FB681B6822F400621A60FB68B3
:102DE000242283F83D20FB6800221A64FB68704AA5
:102DF000DA62FB681B681A68FB681B6842F4807221
:102E00001A60FB6900933B6800224FF00111F868DB
:102E100000F04EFA0346002B0DD0FB681B681B68C0
:102E200003F48073B3F5807F03D1FB684FF4007225
:102E30001A640323B6E07B89DBB21A46FB681B6881
:102E400002F0FE021A61FEF797FBF861FB681B684F
:102E50005B6903F00203022B0CBF01230023DBB2EA
:102E6000FB75FB681B685B6903F48063B3F5806FD7
:102E70000CBF01230023DBB2BB7525E0FEF77CFB12
:102E80000246FB69D31A3A689A4202D33B68002B88
:102E900003D1FB68A02283F83D20FB681B685B69B7
:102EA00003F00203022B0CBF01230023DBB2FB75EE
:102EB000FB681B685B6903F48063B3F5806F0CBF2C
:102EC00001230023DBB2BB75FB6893F83D30DBB216
:102ED000A02B05D0FB7D002B02D1BB7D002BCDD0DC
:102EE000FB68202283F83D20FB681B685B6903F0C8
:102EF0000203022B29D1FB681B681A68FB681B6858
:102F000042F400721A6000233B61FB681B685B6936
:102F10003B61FB681B689B693B613B69FB690093F4
:102F2000192301222149F86800F0C2F90346002B59
:102F300001D0012336E0FB68202283F83D20FB68A6
:102F4000002283F83C2000232CE0FB681B681A68F1
:102F5000FB681B6842F400721A60FB681B686FF420
:102F600080625A61FB690093192301220F49F868B6
:102F700000F09EF90346002B01D0012312E0BB694B
:102F80000133BB61BA697B689A42FFF432AFFB68D8
:102F9000202283F83D20FB68002283F83C20012397
:102FA00000E0022318462037BD4680BD0200100015
:102FB0000000FFFF80B588B002AFF86008461146F8
:102FC0001A4603467B810B463B811346FB80FB6818
:102FD0001B681A68FB681B6842F480721A607B6A7F
:102FE00000933B6A00224FF00111F86800F060F98D
:102FF0000346002B0DD0FB681B681B6803F480732D
:10300000B3F5807F03D1FB684FF400721A64032389
:103010005FE07B89DBB21A46FB681B6802F0FE02A8
:103020001A617B6A3A6A2D49F86800F0BBF90346D9
:10303000002B01D001234CE000237B61FB681B685F
:103040005B697B61FB681B689B697B617B697A6A52
:10305000396AF86800F046FA0346002B0DD0FB6889
:103060001B6C042B07D1FB681B681A68FB681B6884
:1030700042F400721A6001232BE0FB88012B05D17A
:103080003B89DAB2FB681B681A6121E03B891B0AA5
:103090009BB2DAB2FB681B681A617A6A396AF8680F
:1030A00000F020FA0346002B0DD0FB681B6C042BAC
:1030B00007D1FB681B681A68FB681B6842F4007242
:1030C0001A60012305E03B89DAB2FB681B681A61CC
:1030D000002318461837BD4680BD00BF020001001E
:1030E00080B588B002AFF860084611461A4603461C
:1030F0007B810B463B811346FB80FB681B681A688B
:10310000FB681B6842F480621A60FB681B681A68DF
:10311000FB681B6842F480721A607B6A00933B6A0A
:1031200000224FF00111F86800F0C2F80346002BAE
:103130000DD0FB681B681B6803F48073B3F5807FB8
:1031400003D1FB684FF400721A640323AAE07B8961
:10315000DBB21A46FB681B6802F0FE021A617B6A4A
:103160003A6A5249F86800F01DF90346002B01D075
:10317000012397E000237B61FB681B685B697B612F
:10318000FB681B689B697B617B697A6A396AF868AE
:1031900000F0A8F90346002B0DD0FB681B6C042B34
:1031A00007D1FB681B681A68FB681B6842F4007251
:1031B0001A60012376E0FB88012B05D13B89DAB246
:1031C000FB681B681A6121E03B891B0A9BB2DAB2DB
:1031D000FB681B681A617A6A396AF86800F082F93C
:1031E0000346002B0DD0FB681B6C042B07D1FB683A
:1031F0001B681A68FB681B6842F400721A6001239E
:1032000050E03B89DAB2FB681B681A617A6A396A56
:10321000F86800F067F90346002B0DD0FB681B6CC3
:10322000042B07D1FB681B681A68FB681B6842F413
:1032300000721A60012335E0FB681B681A68FB689E
:103240001B6842F480721A607B6A00933B6A00221A
:103250004FF00111F86800F02BF80346002B0DD059
:10326000FB681B681B6803F48073B3F5807F03D190
:10327000FB684FF400721A64032313E07B89DBB20E
:1032800043F00103DAB2FB681B681A617B6A3A6A91
:103290000649F86800F086F80346002B01D00123A8
:1032A00000E0002318461837BD4680BD020001002B
:1032B00080B584B000AFF860B9603B601346FB7125
:1032C00048E03B68B3F1FF3F44D0FEF755F90246B2
:1032D000BB69D31A3A689A4202D33B68002B39D1B2
:1032E000BB681B0CDBB2012B0DD1FB681B685B6953
:1032F000DA43BB6813409BB2002B0CBF01230023B1
:10330000DBB21A460CE0FB681B689B69DA43BB68BA
:1033100013409BB2002B0CBF01230023DBB21A46E3
:10332000FB799A4216D1FB6800221A63FB682022BF
:1033300083F83D20FB68002283F83E20FB681B6C6D
:1033400043F02002FB681A64FB68002283F83C20EB
:10335000012323E0BB681B0CDBB2012B0DD1FB6802
:103360001B685B69DA43BB6813409BB2002B0CBF40
:1033700001230023DBB21A460CE0FB681B689B6943
:10338000DA43BB6813409BB2002B0CBF0123002320
:10339000DBB21A46FB799A4293D0002318461037C5
:1033A000BD4680BD80B584B000AFF860B9607A607A
:1033B0003B6071E0FB681B685B6903F48063B3F5F5
:1033C000806F23D1FB681B681A68FB681B6842F496
:1033D00000721A60FB681B686FF480625A61FB68B8
:1033E00000221A63FB68202283F83D20FB6800223C
:1033F00083F83E20FB681B6C43F00402FB681A64F0
:10340000FB68002283F83C20012367E07B68B3F16E
:10341000FF3F41D0FEF7B0F802463B68D31A7A6806
:103420009A4202D37B68002B36D1BB681B0CDBB2FF
:10343000012B0CD1FB681B685B69DA43BB68134046
:103440009BB2002B14BF01230023DBB20BE0FB680F
:103450001B689B69DA43BB6813409BB2002B14BF07
:1034600001230023DBB2002B16D0FB6800221A6375
:10347000FB68202283F83D20FB68002283F83E2071
:10348000FB681B6C43F02002FB681A64FB68002297
:1034900083F83C20012321E0BB681B0CDBB2012B2D
:1034A0000CD1FB681B685B69DA43BB6813409BB2B5
:1034B000002B14BF01230023DBB20BE0FB681B6869
:1034C0009B69DA43BB6813409BB2002B14BF0123F6
:1034D0000023DBB2002B7FF46DAF002318461037BA
:1034E000BD4680BD80B584B000AFF860B9607A6039
:1034F00034E0F86800F0E3F80346002B01D0012324
:1035000034E0BB68B3F1FF3F28D0FEF735F8024640
:103510007B68D31ABA689A4202D3BB68002B1DD1CC
:10352000FB681B685B6903F08003802B16D0FB6887
:1035300000221A63FB68202283F83D20FB680022EA
:1035400083F83E20FB681B6C43F02002FB681A6482
:10355000FB68002283F83C20012307E0FB681B681E
:103560005B6903F08003802BC3D10023184610371A
:10357000BD4680BD80B584B000AFF860B9607A60A8
:1035800034E0F86800F09BF80346002B01D00123DB
:1035900034E0BB68B3F1FF3F28D0FDF7EDFF0246F2
:1035A0007B68D31ABA689A4202D3BB68002B1DD13C
:1035B000FB681B685B6903F00403042B16D0FB68EF
:1035C00000221A63FB68202283F83D20FB6800225A
:1035D00083F83E20FB681B6C43F02002FB681A64F2
:1035E000FB68002283F83C20012307E0FB681B688E
:1035F0005B6903F00403042BC3D100231846103782
:10360000BD4680BD80B584B000AFF860B9607A6017
:1036100049E0FB681B685B6903F01003102B19D1AC
:10362000FB681B686FF010025A61FB6800221A6386
:10363000FB68202283F83D20FB68002283F83E20AF
:10364000FB681A6CFB681A64FB68002283F83C2054
:10365000012330E0FDF790FF02467B68D31ABA6879
:103660009A4202D3BB68002B1DD1FB681B685B69C3
:1036700003F04003402B16D0FB6800221A63FB685E
:10368000202283F83D20FB68002283F83E20FB685F
:103690001B6C43F02002FB681A64FB68002283F86D
:1036A0003C20012307E0FB681B685B6903F04003D3
:1036B000402BAED1002318461037BD4680BD80B4E4
:1036C00083B000AF78607B681B685B6903F480633C
:1036D000B3F5806F1BD17B681B686FF480625A6101
:1036E0007B6800221A637B68202283F83D207B6878
:1036F000002283F83E207B681B6C43F004027B6849
:103700001A647B68002283F83C20012300E0002338
:1037100018460C37BD4680BC7047000080B586B0A7
:1037200000AF78607B68002B01D1012372E27B68D7
:103730001B6803F00103002B00F08780924B5B684D
:1037400003F00C03042B0CD08F4B5B6803F00C03CD
:10375000082B12D18C4B5B6803F48033B3F5803FA8
:103760000BD1894B1B6803F40033002B6CD07B68B2
:103770005B68002B68D101234CE27B685B68B3F582
:10378000803F06D1804B1B687F4A43F4803313602F
:103790002EE07B685B68002B0CD17B4B1B687A4A60
:1037A00023F480331360784B1B68774A23F480231B
:1037B00013601DE07B685B68B3F5A02F0CD1724BE2
:1037C0001B68714A43F4802313606F4B1B686E4A79
:1037D00043F4803313600BE06B4B1B686A4A23F49D
:1037E00080331360684B1B68674A23F4802313609F
:1037F0007B685B68002B13D0FDF7BEFE386108E0E4
:10380000FDF7BAFE02463B69D31A642B01D90323A4
:1038100000E25D4B1B6803F40033002BF0D014E092
:10382000FDF7AAFE386108E0FDF7A6FE02463B69F7
:10383000D31A642B01D90323ECE1534B1B6803F427
:103840000033002BF0D100E000BF7B681B6803F061
:103850000203002B63D04C4B5B6803F00C03002B7E
:103860000BD0494B5B6803F00C03082B1CD1464B73
:103870005B6803F48033002B16D1434B1B6803F0C5
:103880000203002B05D07B681B69012B01D00123AB
:10389000C0E13D4B1B6823F0F8027B685B69DB00ED
:1038A000394913430B603AE07B681B69002B20D039
:1038B000364B01221A60FDF75FFE386108E0FDF724
:1038C0005BFE02463B69D31A022B01D90323A1E117
:1038D0002D4B1B6803F00203002BF0D02A4B1B6812
:1038E00023F0F8027B685B69DB00274913430B6018
:1038F00015E0264B00221A60FDF73EFE386108E015
:10390000FDF73AFE02463B69D31A022B01D9032385
:1039100080E11D4B1B6803F00203002BF0D17B6894
:103920001B6803F00803002B3AD07B689B69002BCF
:1039300019D0174B01221A60FDF71EFE386108E00E
:10394000FDF71AFE02463B69D31A022B01D9032365
:1039500060E10D4B5B6A03F00203002BF0D0012005
:1039600000F0CEFA1CE00A4B00221A60FDF704FEBC
:1039700038610FE0FDF700FE02463B69D31A022BC7
:1039800008D9032346E100BF001002400000424274
:1039900080044242924B5B6A03F00203002BE9D1A0
:1039A0007B681B6803F00403002B00F0A680002353
:1039B000FB758B4BDB6903F08053002B0DD1884BDB
:1039C000DB69874A43F08053D361854BDB6903F0A1
:1039D0008053BB60BB680123FB75824B1B6803F4FB
:1039E0008073002B18D17F4B1B687E4A43F4807391
:1039F0001360FDF7C1FD386108E0FDF7BDFD02462B
:103A00003B69D31A642B01D9032303E1754B1B686F
:103A100003F48073002BF0D07B68DB68012B06D1A8
:103A20006F4B1B6A6E4A43F0010313622DE07B6803
:103A3000DB68002B0CD16A4B1B6A694A23F0010337
:103A40001362674B1B6A664A23F0040313621CE08F
:103A50007B68DB68052B0CD1614B1B6A604A43F025
:103A6000040313625E4B1B6A5D4A43F00103136259
:103A70000BE05B4B1B6A5A4A23F001031362584B5D
:103A80001B6A574A23F0040313627B68DB68002B30
:103A900015D0FDF771FD38610AE0FDF76DFD0246B6
:103AA0003B69D31A41F28832934201D90323B1E032
:103AB0004B4B1B6A03F00203002BEED014E0FDF722
:103AC0005BFD38610AE0FDF757FD02463B69D31AFA
:103AD00041F28832934201D903239BE0404B1B6A99
:103AE00003F00203002BEED1FB7D012B05D13C4BF3
:103AF000DB693B4A23F08053D3617B68DB69002B91
:103B000000F08780364B5B6803F00C03082B61D014
:103B10007B68DB69022B46D1334B00221A60FDF72C
:103B20002BFD386108E0FDF727FD02463B69D31AFB
:103B3000022B01D903236DE0294B1B6803F00073AE
:103B4000002BF0D17B681B6AB3F5803F08D1244B72
:103B50005B6823F400327B689B68214913434B6008
:103B60001F4B5B6823F474127B68196A7B685B6A7D
:103B70000B431B4913434B601B4B01221A60FDF79B
:103B8000FBFC386108E0FDF7F7FC02463B69D31AFD
:103B9000022B01D903233DE0114B1B6803F0007396
:103BA000002BF0D035E0104B00221A60FDF7E4FC4A
:103BB000386108E0FDF7E0FC02463B69D31A022BAE
:103BC00001D9032326E0064B1B6803F00073002B8A
:103BD000F0D11EE07B68DB69012B07D1012319E0DE
:103BE0000010024000700040600042420B4B5B68D6
:103BF000FB60FB6803F480327B681B6A9A4206D143
:103C0000FB6803F470127B685B6A9A4201D001235F
:103C100000E0002318461837BD4680BD0010024062
:103C200080B584B000AF786039607B68002B01D12B
:103C30000123D0E06A4B1B6803F007033A689A42FD
:103C400010D9674B1B6823F0070265493B68134393
:103C50000B60634B1B6803F007033A689A4201D07C
:103C60000123B8E07B681B6803F00203002B20D01F
:103C70007B681B6803F00403002B05D0594B5B687D
:103C8000584A43F4E06353607B681B6803F0080301
:103C9000002B05D0534B5B68524A43F4605353608A
:103CA000504B5B6823F0F0027B689B684D491343DF
:103CB0004B607B681B6803F00103002B40D07B68DE
:103CC0005B68012B07D1474B1B6803F40033002BC3
:103CD00015D101237FE07B685B68022B07D1414B44
:103CE0001B6803F00073002B09D1012373E03D4BE7
:103CF0001B6803F00203002B01D101236BE0394B59
:103D00005B6823F003027B685B68364913434B60B2
:103D1000FDF732FCF8600AE0FDF72EFC0246FB6876
:103D2000D31A41F28832934201D9032353E02D4B39
:103D30005B6803F00C027B685B689B009A42EBD1E6
:103D4000274B1B6803F007033A689A4210D2244BB2
:103D50001B6823F0070222493B6813430B60204B8A
:103D60001B6803F007033A689A4201D0012332E04E
:103D70007B681B6803F00403002B08D0194B5B68B9
:103D800023F4E0627B68DB68164913434B607B6871
:103D90001B6803F00803002B09D0124B5B6823F467
:103DA00060527B681B69DB000E4913434B6000F0D7
:103DB00021F802460B4B5B681B0903F00F030A490D
:103DC000CB5C22FA03F3094A1360094B1B681846BF
:103DD000FDF790FB002318461037BD4680BD00BF9D
:103DE0000020024000100240985C00080000002003
:103DF0000400002080B487B000AF0023FB600023E4
:103E0000BB6000237B6100237B6000233B611E4B72
:103E10005B68FB60FB6803F00C03042B02D0082BEB
:103E200003D027E0194B3B6127E0FB689B0C03F0B4
:103E30000F03174AD35C7B60FB6803F48033002BCD
:103E400010D0114B5B685B0C03F00103114AD35C8B
:103E5000BB607B680D4A03FB02F2BB68B2FBF3F365
:103E60007B6104E07B680C4A02FB03F37B617B69A6
:103E70003B6102E0054B3B6100BF3B6918461C37C4
:103E8000BD4680BC704700BF0010024000127A009F
:103E9000B05C0008C05C000800093D0080B400AFC1
:103EA000024B1B681846BD4680BC704700000020CE
:103EB00080B500AFFFF7F2FF0246054B5B681B0AB7
:103EC00003F007030349CB5C22FA03F3184680BDD5
:103ED00000100240A85C000880B500AFFFF7DEFFCD
:103EE0000246054B5B68DB0A03F007030349CB5C22
:103EF00022FA03F3184680BD00100240A85C0008B7
:103F000080B485B000AF78600A4B1B680A4AA2FBF8
:103F100003235B0A7A6802FB03F3FB6000BFFB68C4
:103F20005A1EFA60002BF9D100BF00BF1437BD46FE
:103F300080BC704700000020D34D621080B586B071
:103F400000AF786000233B610023FB607B681B6847
:103F500003F00103002B7DD00023FB754F4BDB6981
:103F600003F08053002B0DD14C4BDB694B4A43F0DF
:103F70008053D361494BDB6903F08053BB60BB685E
:103F80000123FB75464B1B6803F48073002B18D18B
:103F9000434B1B68424A43F480731360FDF7ECFA0D
:103FA000386108E0FDF7E8FA02463B69D31A642B52
:103FB00001D903236DE03A4B1B6803F48073002B97
:103FC000F0D0364B1B6A03F44073FB60FB68002B98
:103FD0002ED07B685B6803F44073FA689A4227D05E
:103FE0002E4B1B6A23F44073FB602E4B01221A6098
:103FF0002C4B00221A60294AFB681362FB6803F00D
:104000000103002B14D0FDF7B7FA38610AE0FDF781
:10401000B3FA02463B69D31A41F28832934201D97E
:10402000032336E01D4B1B6A03F00203002BEED086
:104030001A4B1B6A23F440727B685B681749134371
:104040000B62FB7D012B05D1144BDB69134A23F076
:104050008053D3617B681B6803F00203002B08D0F8
:104060000E4B5B6823F440427B689B680B4913430B
:104070004B607B681B6803F01003002B08D0074BD4
:104080005B6823F480027B68DB68044913434B6060
:10409000002318461837BD4680BD00BF00100240FF
:1040A000007000404004424280B588B000AF7860A4
:1040B00000237B610023FB6100233B610023FB6045
:1040C0000023BB617B68102B0AD07B68102B00F2A9
:1040D0008A807B68012B45D07B68022B75D082E0FB
:1040E000464B5B68FB60454B1B6803F08073002BFD
:1040F0007BD0FB689B0C03F00F03414AD35C3B6110
:10410000FB6803F48033002B15D03C4B5B685B0CE1
:1041100003F001033B4AD35C7B61FB6803F480330B
:10412000002B0DD0384A7B69B2FBF3F23B6902FBEE
:1041300003F3FB6104E03B69344A02FB03F3FB61D8
:104140002E4B5B6803F48003B3F5800F02D1FB694B
:10415000BB614AE0FB695B002D4AA2FB03235B08BD
:10416000BB6142E0254B1B6AFB60FB6803F44073B4
:10417000B3F5807F08D1FB6803F00203002B03D066
:104180004FF40043BB611FE0FB6803F44073B3F5D9
:10419000007F09D1194B5B6A03F00203002B03D0A7
:1041A00049F64043BB610FE0FB6803F44073B3F58D
:1041B000407F1CD1114B1B6803F40033002B16D039
:1041C0004FF22443BB6112E011E0FFF785FE024687
:1041D0000A4B5B689B0B03F0030301335B00B2FBEC
:1041E000F3F3BB6104E000BF02E000BF00E000BFEA
:1041F000BB6918462037BD4680BD00BF0010024095
:10420000C45C0008D45C000800127A0000093D007C
:10421000ABAAAAAA80B582B000AF78607B68002BF9
:1042200001D1012341E07B6893F83D30DBB2002BE4
:1042300006D17B68002283F83C207868FCF78CFF6D
:104240007B68022283F83D207B681A687B68043310
:104250001946104600F074FA7B68012283F8462064
:104260007B68012283F83E207B68012283F83F208F
:104270007B68012283F840207B68012283F841207B
:104280007B68012283F842207B68012283F8432067
:104290007B68012283F844207B68012283F8452053
:1042A0007B68012283F83D20002318460837BD466D
:1042B00080BD000080B485B000AF78607B6893F863
:1042C0003D30DBB2012B01D001233AE07B680222B2
:1042D00083F83D207B681B68DA687B681B6842F0C6
:1042E0000102DA607B681B68184A93420ED07B6833
:1042F0001B68B3F1804F09D07B681B68144A934256
:1043000004D07B681B68134A934211D17B681B68F9
:104310009B6803F00703FB60FB68062B10D07B68EB
:104320001B681A687B681B6842F001021A6007E08C
:104330007B681B681A687B681B6842F001021A6080
:10434000002318461437BD4680BC7047002C01403E
:10435000000400400008004080B582B000AF7860E3
:104360007B681B681B6903F00203022B22D17B6868
:104370001B68DB6803F00203022B1BD17B681B6800
:104380006FF002021A617B6801221A777B681B6852
:104390009B6903F00303002B03D0786800F0B4F9A5
:1043A00005E0786800F0A7F9786800F0B6F97B6856
:1043B00000221A777B681B681B6903F00403042B37
:1043C00022D17B681B68DB6803F00403042B1BD13C
:1043D0007B681B686FF004021A617B6802221A77FF
:1043E0007B681B689B6903F44073002B03D07868DB
:1043F00000F08AF905E0786800F07DF9786800F04F
:104400008CF97B6800221A777B681B681B6903F0B4
:104410000803082B22D17B681B68DB6803F00803C4
:10442000082B1BD17B681B686FF008021A617B6840
:1044300004221A777B681B68DB6903F00303002BF7
:1044400003D0786800F060F905E0786800F053F96F
:10445000786800F062F97B6800221A777B681B6835
:104460001B6903F01003102B22D17B681B68DB68EB
:1044700003F01003102B1BD17B681B686FF0100238
:104480001A617B6808221A777B681B68DB6903F472
:104490004073002B03D0786800F036F905E07868A7
:1044A00000F029F9786800F038F97B6800221A7763
:1044B0007B681B681B6903F00103012B0ED17B682D
:1044C0001B68DB6803F00103012B07D17B681B68C5
:1044D0006FF001021A617868FCF7C4FA7B681B6808
:1044E0001B6903F08003802B0ED17B681B68DB689F
:1044F00003F08003802B07D17B681B686FF080027C
:104500001A61786800F07BFA7B681B681B6903F00E
:104510004003402B0ED17B681B68DB6803F040032F
:10452000402B07D17B681B686FF040021A617868E6
:1045300000F0FCF87B681B681B6903F02003202B4C
:104540000ED17B681B68DB6803F02003202B07D1AA
:104550007B681B686FF020021A61786800F046FAE9
:1045600000BF0837BD4680BD80B584B000AF78601D
:1045700039600023FB737B6893F83C30012B01D139
:104580000223B4E07B68012283F83C207B6802228E
:1045900083F83D207B681B689B68BB60BB6823F089
:1045A0007703BB60BB6823F47F43BB607B681B68F9
:1045B000BA689A603B681B68B3F5005F3ED0B3F5FC
:1045C000005F00F28780B3F5805F00F08680B3F56E
:1045D000805F7FD8702B1AD0702B7BD8602B50D087
:1045E000602B77D8502B3CD0502B73D8402B58D011
:1045F000402B6FD8302B64D0302B6BD8202B60D061
:10460000202B67D8002B5CD0102B5AD062E07B683F
:1046100018683B6899683B685A683B68DB6800F03B
:1046200068F97B681B689B68BB60BB6843F07703D5
:10463000BB607B681B68BA689A604FE07B6818684B
:104640003B6899683B685A683B68DB6800F051F941
:104650007B681B689A687B681B6842F480429A609A
:104660003CE07B6818683B6859683B68DB681A4621
:1046700000F0C8F87B681B685021184600F01FF94D
:104680002CE07B6818683B6859683B68DB681A4611
:1046900000F0E6F87B681B686021184600F00FF90F
:1046A0001CE07B6818683B6859683B68DB681A4601
:1046B00000F0A8F87B681B684021184600F0FFF85E
:1046C0000CE07B681A683B681B681946104600F0CE
:1046D000F6F803E00123FB7300E000BF7B680122D2
:1046E00083F83D207B68002283F83C20FB7B184642
:1046F0001037BD4680BD80B483B000AF786000BF86
:104700000C37BD4680BC704780B483B000AF786082
:1047100000BF0C37BD4680BC704780B483B000AF8B
:10472000786000BF0C37BD4680BC704780B483B052
:1047300000AF786000BF0C37BD4680BC70470000FA
:1047400080B485B000AF786039607B681B68FB601F
:104750007B68294A93420BD07B68B3F1804F07D026
:104760007B68264A934203D07B68254A934208D14E
:10477000FB6823F07003FB603B685B68FA681343D7
:10478000FB607B681C4A93420BD07B68B3F1804F7F
:1047900007D07B68194A934203D07B68184A93423A
:1047A00008D1FB6823F44073FB603B68DB68FA6860
:1047B0001343FB60FB6823F080023B685B69134393
:1047C000FB607B68FA681A603B689A687B68DA620B
:1047D0003B681A687B689A627B68074A934203D1F8
:1047E0003B681A697B681A637B6801225A6100BFC3
:1047F0001437BD4680BC7047002C014000040040C7
:104800000008004080B487B000AFF860B9607A60FB
:10481000FB681B6A7B61FB681B6A23F00102FB6873
:104820001A62FB689B693B613B6923F0F0033B61C3
:104830007B681B013A6913433B617B6923F00A03E0
:104840007B617A69BB6813437B61FB683A699A6153
:10485000FB687A691A6200BF1C37BD4680BC70478E
:1048600080B487B000AFF860B9607A60FB681B6AFB
:104870007B61FB681B6A23F01002FB681A62FB680D
:104880009B693B613B6923F470433B617B681B037D
:104890003A6913433B617B6923F0A0037B61BB68EA
:1048A0001B017A6913437B61FB683A699A61FB6873
:1048B0007A691A6200BF1C37BD4680BC704780B45D
:1048C00085B000AF786039607B689B68FB60FB68EF
:1048D00023F07003FB603A68FB68134343F007035F
:1048E000FB607B68FA689A6000BF1437BD4680BCE5
:1048F000704780B487B000AFF860B9607A603B6001
:10490000FB689B687B617B6923F47F437B613B6829
:104910001A027B681A43BB6813437A6913437B61AD
:10492000FB687A699A6000BF1C37BD4680BC70473F
:1049300080B485B000AF786039607B6893F83C3014
:10494000012B01D1022346E07B68012283F83C2041
:104950007B68022283F83D207B681B685B68FB60F4
:104960007B681B689B68BB60FB6823F07003FB607F
:104970003B681B68FA681343FB607B681B68FA6836
:104980005A607B681B68164A93420ED07B681B688E
:10499000B3F1804F09D07B681B68124A934204D060
:1049A0007B681B68104A93420CD1BB6823F08003DC
:1049B000BB603B685B68BA681343BB607B681B687D
:1049C000BA689A607B68012283F83D207B680022E8
:1049D00083F83C20002318461437BD4680BC70473E
:1049E000002C0140000400400008004080B483B067
:1049F00000AF786000BF0C37BD4680BC704780B404
:104A000083B000AF786000BF0C37BD4680BC7047F4
:104A100080B582B000AF78607B68002B01D10123A4
:104A200042E07B6893F84130DBB2002B06D17B6813
:104A3000002283F840207868FCF7B2FB7B682422D0
:104A400083F841207B681B68DA687B681B6822F466
:104A50000052DA60786800F01DF97B681B681A69FB
:104A60007B681B6822F490421A617B681B685A6954
:104A70007B681B6822F02A025A617B681B68DA682F
:104A80007B681B6842F40052DA607B6800225A643B
:104A90007B68202283F841207B68202283F8422013
:104AA0007B6800225A63002318460837BD4680BD44
:104AB00080B58AB002AFF860B9603B601346FB80F6
:104AC00000237B61FB6893F84130DBB2202B6DD172
:104AD000BB68002B02D0FB88002B01D1012366E0CC
:104AE000FB6800225A64FB68212283F84120FCF70E
:104AF00043FD7861FB68FA889A84FB68FA88DA8457
:104B0000FB689B68B3F5805F08D1FB681B69002BCD
:104B100004D10023FB61BB68BB6103E0BB68FB61A0
:104B20000023BB612AE03B6800937B69002280215F
:104B3000F86800F040F80346002B01D0032336E06C
:104B4000FB69002B0BD1BB691B881A46FB681B68ED
:104B5000C2F308025A60BB690233BB6107E0FB691C
:104B60001A78FB681B685A60FB690133FB61FB68BC
:104B7000DB8C9BB2013B9AB2FB68DA84FB68DB8C6E
:104B80009BB2002BCFD13B6800937B690022402170
:104B9000F86800F010F80346002B01D0032306E06C
:104BA000FB68202283F84120002300E002231846FE
:104BB0002037BD4680BD80B590B000AFF860B960C9
:104BC0003B601346FB7150E0BB6CB3F1FF3F4CD030
:104BD000BB6C002B07D0FCF7CFFC02463B68D31A16
:104BE000BA6C9A4241D2FB681B680C33BB62BB6A49
:104BF00053E8003F7B627B6A23F4D073FB63FB685E
:104C00001B680C33FA6B7A633B63396B7A6B41E850
:104C10000023FB62FB6A002BE5D1FB681B681433A1
:104C20007B617B6953E8003F3B613B6923F00103F3
:104C3000BB63FB681B681433BA6B3A62FB61F969AA
:104C40003A6A41E80023BB61BB69002BE5D1FB68F0
:104C5000202283F84120FB68202283F84220FB6851
:104C6000002283F8402003230FE0FB681B681A68CA
:104C7000BB681340BA689A420CBF01230023DBB221
:104C80001A46FB799A429FD0002318464037BD460A
:104C900080BD000080B584B000AF78607B681B6881
:104CA0001B6923F440517B68DA687B681B680A4300
:104CB0001A617B689A687B681B691A437B685B6929
:104CC0001343BB607B681B68DB6823F4B05323F09D
:104CD0000C037A681268B9680B43D3607B681B6861
:104CE0005B6923F440717B689A697B681B680A439F
:104CF0005A617B681B682C4A934203D1FFF7ECF89A
:104D0000F86002E0FFF7D4F8F860FA6813469B00F9
:104D100013449A001A447B685B689B00B2FBF3F370
:104D2000224AA2FB03235B091901FA6813469B0080
:104D300013449A001A447B685B689B00B2FBF3F251
:104D40001A4BA3FB02035B09642000FB03F3D31A95
:104D50001B013233154AA2FB03235B0903F0F00366
:104D60001944FA6813469B0013449A001A447B685E
:104D70005B689B00B2FBF3F20C4BA3FB02035B09E5
:104D8000642000FB03F3D31A1B013233074AA2FB52
:104D900003235B0903F00F027B681B680A449A60D7
:104DA00000BF1037BD4680BD003801401F85EB5164
:104DB000002310B50446C0E90033C0E90433836022
:104DC00081814366C2818361194608225C3000F00C
:104DD00006F90D4B246263620C4BA3620C4BE36239
:104DE0000C4B23630C4B9C4206D003F168029442A7
:104DF00002D0D0339C4205D104F15800BDE81040E8
:104E000000F066B910BD00BF594F00087B4F000885
:104E1000B34F0008D74F000804020020024A03499C
:104E2000034800F069B800BF0C0000207159000869
:104E30001800002041680C4B10B59942044601D07F
:104E400000F096FDA168094B994202D0204600F07F
:104E50008FFDE168064B994204D02046BDE8104022
:104E600000F086BD10BD00BF040200206C020020CF
:104E7000D402002010B50B4B0B4C0C4A20461A6094
:104E800004210022FFF794FF04F1680001220921A8
:104E9000FFF78EFF04F1D0000222BDE8104012217E
:104EA000FFF786BF3C030020040200201D4E0008CF
:104EB000014800F00EB900BF45030020014800F092
:104EC00009B900BF4503002010B50446FFF7F0FF05
:104ED000236A1BB1BDE81040FFF7F0BF044B23620B
:104EE000044B1B68002BF5D1FFF7C4FFF2E700BFAE
:104EF000354E00083C0300202DE9F843074688465C
:104F000014460026D4E90195B9F1010905D52468B4
:104F1000002CF7D13046BDE8F883AB89012B07D9C7
:104F2000B5F90E30013303D029463846C047064351
:104F30006835E9E70FB407B5064904AB086853F8CC
:104F4000042B8168019300F0E3F903B05DF804EBF2
:104F500004B070476400002010B50C46B1F90E1083
:104F600000F068F80028ABBF636DA3891B1823F419
:104F70008053ACBF6365A38110BD2DE9F0411F468E
:104F80008B890546DB050C46164605D50223002213
:104F9000B1F90E1000F03CF8A389324623F4805397
:104FA000A38128463B46B4F90E10BDE8F04100F05D
:104FB00053B810B50C46B1F90E1000F029F8431C97
:104FC000A38915BF606523F4805343F48053A38104
:104FD00018BFA38110BDB1F90E1000F009B8034647
:104FE0000244934200D1704703F8011BF9E7000027
:104FF00038B50023054D044608462B60FCF7BFF981
:10500000431C02D12B6803B1236038BD400300204C
:1050100038B50446084611460022054D2A601A4656
:10502000FCF7D1F9431C02D12B6803B1236038BDD2
:105030004003002038B50446084611460022054DBD
:105040002A601A46FCF762F9431C02D12B6803B1AF
:10505000236038BD4003002038B504460846114699
:105060000022054D2A601A46FCF76DF9431C02D157
:105070002B6803B1236038BD40030020014B186842
:10508000704700BF6400002070B500260C4D0D4C29
:10509000641BA410A64209D100F0CAFD00260A4DE7
:1050A0000A4C641BA410A64205D170BD55F8043B00
:1050B00098470136EEE755F8043B98470136F2E78A
:1050C0000C5D00080C5D00080C5D0008105D000818
:1050D000704770477047000038B50546002940D03A
:1050E00051F8043C0C1F002BB8BFE41800F0DCF8AA
:1050F0001C4A136833B9636014602846BDE8384021
:1051000000F0D8B8A34208D9206821188B4201BF0B
:1051100019685B6809182160EDE71A465B680BB1F6
:10512000A342FAD911685018A0420BD1206801445B
:10513000501883421160E0D118685B680844106021
:105140005360DAE702D90C232B60D6E720682118D8
:105150008B4201BF19685B68091821606360546065
:10516000CBE738BD4803002070B50E4E0C463168C1
:10517000054611B900F0BAFC30602146284600F01F
:10518000B5FC431C0AD0C41C24F00304A04207D081
:10519000211A284600F0AAFC013001D14FF0FF345B
:1051A000204670BD4C0300202DE9F843CD1C25F0AE
:1051B000030508350C2D38BF0C25002D074601DBF3
:1051C000A94205D90C2300263B603046BDE8F88390
:1051D000DFF8D08000F068F8D8F800301C465CBBDF
:1051E00029463846FFF7C0FF431C044655D1D8F87E
:1051F00000402646002E45D1002C48D02368314679
:10520000384604EB030900F071FC81453FD1216869
:1052100038466D1A2946FFF7A7FF013037D02368BB
:105220002B442360D8F80030002B38D05A68A242B3
:105230002BD100225A600FE02268521B1FD40B2A88
:1052400017D96119A342256018BF5960636808BF68
:10525000C8F8001062514B60384604F10B0600F0AC
:1052600029F826F00706231DF21AAED09B1BA35087
:10527000ABE7A3426268DDD1C8F80020ECE7234623
:105280006468ACE734467668B4E71346CCE70C2391
:1052900038463B6000F00EF897E72560DCE75B607E
:1052A000FFDE00BF480300200148FFF712BF00BF28
:1052B000440300200148FFF70DBF00BF4403002056
:1052C000936810B4013B002B936007DA9469A34202
:1052D00001DB0A2902D110BC00F072BB1368581C14
:1052E00010601970084610BC7047F8B506460F46A6
:1052F0001446D518AC4201D1002007E03A463046AA
:1053000014F8011BFFF7DCFF431CF3D1F8BD0000CC
:105310002DE9F04F0D461446984606469DB018B14B
:10532000036A0BB9FFF7D0FD6B6ED90705D4AB89C3
:105330009A0502D4A86DFFF7CCFEAB891B0701D5F7
:105340002B699BB92946304600F078FB70B16B6E33
:10535000DC0704D54FF0FF301DB0BDE8F08FAB89FE
:105360009805F7D4A86DFFF7B5FEF3E7002309937E
:1053700020238DF8293030234FF00109CDF80C801F
:10538000DFF8AC818DF82A3023469A4613F8012BBA
:105390000AB1252AF9D1BAEB040B0BD05B462246A1
:1053A00029463046FFF7A1FF013000F0A980099A95
:1053B0005A4409929AF80030002B00F0A180002393
:1053C0004FF0FF32CDE905230AF1010A0493079358
:1053D0008DF853301A935446052214F8011B544893
:1053E00000F094FB049AD8B9D10644BF20238DF86D
:1053F0005330130744BF2B238DF853309AF80030F5
:105400002A2B15D0544600204FF00A0C079A21464B
:1054100011F8013B303B092B4DD9B0B1079214E094
:10542000A0EB080309FA03F31343A2460493D2E75F
:10543000039B191D1B680391002BBBBF5B4242F00D
:10544000020207930793B8BF049223782E2B0CD146
:1054500063782A2B34D1039B02341A1D1B680392F4
:10546000002BB8BF4FF0FF330593DFF8C8A003222D
:105470005046217800F04AFB38B14022049BA0EB53
:105480000A00824013430134049314F8011B0622DE
:1054900029488DF8281000F039FB00283FD0274B11
:1054A0001BBB039B073323F0070308330393099BBC
:1054B0003B44099368E70C4601200CFB0232A6E747
:1054C00000234FF00A0C194601340593204610F8CA
:1054D000012B303A092A03D9002BC6D00591C4E725
:1054E000044601230CFB0121F0E703AB00932A469D
:1054F0003046134B04A9AFF300800746781CD6D181
:105500006B6ED90705D4AB899A0502D4A86DFFF755
:10551000E1FDAB895B063FF51DAF09981CE703ABC6
:1055200000932A463046064B04A900F07DF8E4E7D4
:10553000D65C0008DC5C0008E05C000800000000AD
:10554000EB5200082DE9F047164699468A680B6928
:1055500007469342B8BF1346336091F843200C4688
:10556000DDF820800AB1013333602368990642BF19
:10557000336802333360256815F0060506D104F15F
:10558000190AE36832689B1AAB422BDC94F843207B
:10559000131E226818BF0123920630D449463846AC
:1055A00004F14302C047013023D02368226903F08D
:1055B0000603042B14BF002533684FF0000608BF14
:1055C000E56804F11A0408BFED1A54F8123C08BF4C
:1055D00025EAE5759342C4BF9B1AED18B5421AD16E
:1055E000002008E00123524649463846C0470130B2
:1055F00003D14FF0FF30BDE8F0870135C1E730201F
:10560000E11881F843005A1C94F8451022440233F3
:1056100082F84310C2E70123224649463846C04774
:105620000130E6D00136D9E72DE9FF470F7E9146DC
:10563000782F80460C469A460C9D01F1430207D80C
:10564000622F0AD8002F00F0D580582F00F0C180BB
:1056500004F1420584F842703AE0A7F16303152B88
:10566000F6D801A151F823F0C1560008D55600081C
:10567000515600085156000851560008515600086E
:10568000D5560008515600085156000851560008DA
:1056900051560008DB5700080157000895570008CD
:1056A0005156000851560008FD5700085156000891
:1056B0000157000851560008515600089D57000830
:1056C0002B681A1D1B682A6004F1420584F84230D9
:1056D0000123A0E020682B68070603F1040129607C
:1056E00001D51E6803E04606FBD5B3F90060002E25
:1056F00003DA2D23764284F843300A23594812E016
:105700002B682068191D2960050601D51E6802E076
:105710004106FBD51E886F2F0CBF08230A23514872
:10572000002184F843106568002DA8BF2168A5609A
:10573000A4BF21F0040121600EB9002D4BD0154605
:10574000B6FBF3F103FB1167C75D05F8017D374632
:10575000BB420E46F4D9082B0BD12368DE0708D5CF
:10576000236961689942DEBF302305F8013C05F1E9
:10577000FF35521B22614B4621464046CDF800A022
:1057800003AAFFF7DFFE01304AD14FF0FF3004B02B
:10579000BDE8F087236843F0200323607827324870
:1057A00084F84570236829681F0651F8046B02D4F9
:1057B0005F0648BFB6B2DF0748BF43F02003296049
:1057C00048BF23601EB9236823F020032360102301
:1057D000A6E72448E4E71546BDE72B682668181DB0
:1057E0006169286035061B6801D5196002E0700602
:1057F000FBD51980002315462361BCE72B680021E7
:105800001A1D2A601D686268284600F07FF908B1F9
:10581000401B606063682361002384F84330AAE77B
:105820002A46494640462369D0470130ADD0236817
:105830009B0713D4E068039B9842B8BF1846A6E7BD
:105840000123324649464046D04701309DD00135BC
:10585000E36803995B1AAB42F2DCEBE7002504F145
:105860001906F5E7E75C0008F85C00088A89F8B5D6
:10587000054610070C4657D44B68002B04DC0B6C14
:10588000002B01DC0020F8BDE66A002EFAD00023D0
:1058900012F480522F68216A2B6032D0606DA38988
:1058A0005A0705D56368C01A636B0BB1236CC01A25
:1058B00000230246E66A2846216AB047431CA389B2
:1058C00006D129681D292BD8284A0A41D60727D492
:1058D000002262602269D904226004D5421C01D1F1
:1058E0002B6803B96065616B2F600029CAD004F191
:1058F0004403994202D02846FFF7EEFB0020606384
:10590000C1E701232846B047411CC8D12B68002BB2
:10591000C5D01D2B01D0162B01D12F60B2E7A38972
:1059200043F04003A381AEE70F69002FAAD093078D
:1059300018BF00230E6808BF4B69F61B0F608B6011
:10594000002E9FDD33463A462846216AD4F828C007
:10595000E047002806DCA3894FF0FF3043F0400306
:10596000A38190E70744361AEAE700BFFEFFBFDFD6
:1059700038B50B6905460C4613B90025284638BDD5
:1059800018B1036A0BB9FFF79FFAB4F90C30002B7A
:10599000F3D0626ED00704D4990502D4A06DFFF74E
:1059A00098FB28462146FFF761FF636E0546DA073C
:1059B000E4D4A3899B05E1D4A06DFFF78BFBDDE761
:1059C000F8B50E461446054618B1036A0BB9FFF741
:1059D0007BFAA369A360A3891A0725D523691BB3A2
:1059E00023682269F6B2981A63693746834204DC59
:1059F00021462846FFF7BCFFE0B9A368013BA3603E
:105A000023685A1C22601E706269431C9A4204D0AB
:105A1000A389DB0706D50A2E04D121462846FFF7C5
:105A2000A7FF38B93846F8BD2146284600F006F8E9
:105A30000028D5D04FF0FF37F4E7000038B52A4BE7
:105A4000054618680C4618B1036A0BB9FFF73CFA13
:105A5000A389B4F90C20180722D4D90607D4092346
:105A60002B6042F040034FF0FF30A38134E0580731
:105A700012D5616B41B104F14403994202D028462A
:105A8000FFF72AFB00236363A38923F02403A38188
:105A90000023636023692360A38943F00803A38183
:105AA00023694BB9A38903F42073B3F5007F03D0B6
:105AB0002146284600F05DF8A089B4F90C2010F0CA
:105AC00001030AD00023A36063695B42A3612369D9
:105AD00043B910F08000C4D138BD810758BF636955
