:020000040800F2
:100000000050002045160008891400088F140008CD
:10001000951400089B140008A114000800000000BB
:10002000000000000000000000000000A71400080D
:10003000B314000800000000BF140008CB1400082F
:100040008D1600088D1600088D1600088D16000804
:100050008D1600088D1600088D1600088D160008F4
:100060008D1600088D1600088D1600088D160008E4
:100070008D1600088D1600088D1600088D160008D4
:100080008D1600088D1600088D1600088D160008C4
:100090008D1600088D1600088D1600088D160008B4
:1000A0008D1600088D1600088D1600088D160008A4
:1000B0008D1600088D1600088D1600088D16000894
:1000C0008D1600088D1600088D1600088D16000884
:1000D0008D1600088D1600088D1600088D16000874
:1000E0008D1600088D1600088D160008000000000F
:1000F0000000000000000000000000000000000000
:0C01000000000000000000005FF808F1A3
:1001100010B5054C237833B9044B13B10448AFF341
:1001200000800123237010BD680000200000000043
:10013000045A000808B5034B1BB103490348AFF349
:10014000008008BD000000006C000020045A000878
:1001500081F0004102E000BF83F0004330B54FEA78
:1001600041044FEA430594EA050F08BF90EA020FE5
:100170001FBF54EA000C55EA020C7FEA645C7FEA78
:10018000655C00F0E2804FEA5454D4EB5555B8BF9B
:100190006D420CDD2C4480EA020281EA030382EA0C
:1001A000000083EA010180EA020281EA0303362D9E
:1001B00088BF30BD11F0004F4FEA01314FF4801C71
:1001C0004CEA113102D0404261EB410113F0004F83
:1001D0004FEA03334CEA133302D0524263EB43033A
:1001E00094EA050F00F0A780A4F10104D5F1200ED8
:1001F0000DDB02FA0EFC22FA05F2801841F1000133
:1002000003FA0EF2801843FA05F359410EE0A5F106
:1002100020050EF1200E012A03FA0EFC28BF4CF037
:10022000020C43FA05F3C01851EBE37101F00045ED
:1002300007D54FF0000EDCF1000C7EEB00006EEBFA
:100240000101B1F5801F1BD3B1F5001F0CD3490884
:100250005FEA30004FEA3C0C04F101044FEA4452DB
:1002600012F5800F80F09A80BCF1004F08BF5FEA62
:10027000500C50F1000041EB045141EA050130BD42
:100280005FEA4C0C404141EB0101013C28BFB1F554
:10029000801FE9D291F0000F04BF01460020B1FA9F
:1002A00081F308BF2033A3F10B03B3F120020CDA72
:1002B0000C3208DD02F1140CC2F10C0201FA0CF050
:1002C00021FA02F10CE002F11402D8BFC2F1200CB5
:1002D00001FA02F120FA0CFCDCBF41EA0C0190406B
:1002E000E41AA2BF01EB0451294330BD6FEA0404B4
:1002F0001F3C1CDA0C340EDC04F11404C4F120029F
:1003000020FA04F001FA02F340EA030021FA04F3B0
:1003100045EA030130BDC4F10C04C4F1200220FA07
:1003200002F001FA04F340EA0300294630BD21FA45
:1003300004F0294630BD94F0000F83F4801306BF0B
:1003400081F480110134013D4EE77FEA645C18BFFF
:100350007FEA655C29D094EA050F08BF90EA020F96
:1003600005D054EA000C04BF1946104630BD91EA8E
:10037000030F1EBF0021002030BD5FEA545C05D191
:100380004000494128BF41F0004130BD14F58004D0
:100390003CBF01F5801130BD01F0004545F0FE4144
:1003A00041F470014FF0000030BD7FEA645C1ABF79
:1003B000194610467FEA655C1CBF0B46024650EAB0
:1003C000013406BF52EA033591EA030F41F40021DC
:1003D00030BD00BF90F0000F04BF0021704730B562
:1003E0004FF4806404F132044FF000054FF0000137
:1003F00050E700BF90F0000F04BF0021704730B5F8
:100400004FF4806404F1320410F0004548BF4042CC
:100410004FF000013EE700BF42004FEAE2014FEA21
:1004200031014FEA02701FBF12F07F4393F07F4FFC
:1004300081F06051704732F07F4208BF704793F0FF
:100440007F4F04BF41F40021704730B54FF4607412
:1004500001F0004521F000411CE700BF50EA010215
:1004600008BF704730B54FF000050AE050EA0102BE
:1004700008BF704730B511F0004502D5404261EB2E
:1004800041014FF4806404F132045FEA915C3FF46F
:10049000D8AE4FF003025FEADC0C18BF03325FEA0C
:1004A000DC0C18BF033202EBDC02C2F1200300FABD
:1004B00003FC20FA02F001FA03FE40EA0E0021FAE2
:1004C00002F11444BDE600BF70B54FF0FF0C4CF4D0
:1004D000E06C1CEA11541DBF1CEA135594EA0C0F82
:1004E00095EA0C0F00F0DEF82C4481EA030621EABD
:1004F0004C5123EA4C5350EA013518BF52EA0335F8
:1005000041F4801143F4801338D0A0FB02CE4FF0A9
:100510000005E1FB02E506F00042E0FB03E54FF0D9
:100520000006E1FB03569CF0000F18BF4EF0010ED1
:10053000A4F1FF04B6F5007F64F5407404D25FEACD
:100540004E0E6D4146EB060642EAC62141EA555180
:100550004FEAC52040EA5E504FEACE2EB4F1FD0CC2
:1005600088BFBCF5E06F1ED8BEF1004F08BF5FEA40
:10057000500E50F1000041EB045170BD06F00046F2
:1005800046EA010140EA020081EA0301B4EB5C049F
:10059000C2BFD4EB0C0541EA045170BD41F4801197
:1005A0004FF0000E013C00F3AB8014F1360FDEBFBC
:1005B000002001F0004170BDC4F10004203C35DA98
:1005C0000C341BDC04F11404C4F1200500FA05F31B
:1005D00020FA04F001FA05F240EA020001F00042BC
:1005E00021F0004110EBD37021FA04F642EB060132
:1005F0005EEA430E08BF20EAD37070BDC4F10C045C
:10060000C4F1200500FA04F320FA05F001FA04F21F
:1006100040EA020001F0004110EBD37041F100010B
:100620005EEA430E08BF20EAD37070BDC4F1200516
:1006300000FA05F24EEA020E20FA04F301FA05F27E
:1006400043EA020321FA04F001F0004121FA04F226
:1006500020EA020000EBD3705EEA430E08BF20EAF6
:10066000D37070BD94F0000F0FD101F00046400030
:1006700041EB010111F4801F08BF013CF7D041EAB2
:10068000060195F0000F18BF704703F000465200B6
:1006900043EB030313F4801F08BF013DF7D043EA87
:1006A0000603704794EA0C0F0CEA135518BF95EA3D
:1006B0000C0F0CD050EA410618BF52EA4306D1D1C4
:1006C00081EA030101F000414FF0000070BD50EAE3
:1006D000410606BF1046194652EA430619D094EA6D
:1006E0000C0F02D150EA013613D195EA0C0F05D157
:1006F00052EA03361CBF104619460AD181EA0301AB
:1007000001F0004141F0FE4141F470014FF0000062
:1007100070BD41F0FE4141F4780170BD70B54FF0FD
:10072000FF0C4CF4E06C1CEA11541DBF1CEA13557D
:1007300094EA0C0F95EA0C0F00F0A7F8A4EB05045F
:1007400081EA030E52EA03354FEA013100F0888056
:100750004FEA03334FF0805545EA131343EA12631F
:100760004FEA022245EA111545EA10654FEA0026D4
:100770000EF000419D4208BF964244F1FD0404F58D
:10078000407402D25B084FEA3202B61A65EB0305E9
:100790005B084FEA32024FF480104FF4002CB6EBA6
:1007A000020E75EB030E22BFB61A754640EA0C0026
:1007B0005B084FEA3202B6EB020E75EB030E22BF66
:1007C000B61A754640EA5C005B084FEA3202B6EBA7
:1007D000020E75EB030E22BFB61A754640EA9C0066
:1007E0005B084FEA3202B6EB020E75EB030E22BF36
:1007F000B61A754640EADC0055EA060E18D04FEAF4
:10080000051545EA16754FEA06164FEAC30343EA93
:1008100052734FEAC2025FEA1C1CC0D111F4801F60
:100820000BD141EA00014FF000004FF0004CB6E759
:1008300011F4801F04BF01430020B4F1FD0C88BFF8
:10084000BCF5E06F3FF6AFAEB5EB030C04BFB6EB03
:10085000020C5FEA500C50F1000041EB045170BDF6
:100860000EF0004E4EEA113114EB5C04C2BFD4EB23
:100870000C0541EA045170BD41F480114FF0000EA7
:10088000013C90E645EA060E8DE60CEA135594EA23
:100890000C0F08BF95EA0C0F3FF43BAF94EA0C0F26
:1008A0000AD150EA01347FF434AF95EA0C0F7FF49B
:1008B00025AF104619462CE795EA0C0F06D152EAEF
:1008C00003353FF4FDAE1046194622E750EA4106D3
:1008D00018BF52EA43067FF4C5AE50EA41047FF4E4
:1008E0000DAF52EA43057FF4EBAE12E74A0011D296
:1008F00012F5001211D20DD56FF47873B3EB62527A
:100900000ED44FEAC12343F0004343EA505323FA85
:1009100002F070474FF00000704750EA013002D1FA
:100920004FF0FF3070474FF00000704780B588B03F
:1009300004AF78600B46FB707B681868FB789AB24E
:100940004FF47A7302930223019307F10C0300938F
:100950000123802102F0FCF93B7B1B021AB27B7B56
:100960001BB213431BB29BB218461037BD4680BD65
:1009700080B588B004AF78600B46FB7013463B80AF
:100980003B881B0A9BB2DBB23B733B88DBB27B73B9
:100990007B681868FB789AB24FF47A73029302234B
:1009A000019307F10C0300930123802102F0D6F894
:1009B00000BF1037BD4680BD80B584B000AF786001
:1009C00002217868FFF7B2FF0346FB81FB89DB0851
:1009D0009BB29B009BB218461037BD4680BD80B5C8
:1009E00084B000AF786004217868FFF79FFF03466A
:1009F000FB81B7F90E3018461037BD4680BD0000A8
:100A000080B584B000AF78607868FFF7E8FF0346F0
:100A1000FB81B7F90E30054AB2F9002093FBF2F3DF
:100A20001BB218461037BD4680BD00BF86000020AF
:100A300080B582B000AF78604FF400420021786842
:100A4000FFF796FF012000F085FE00BF0837BD4686
:100A500080BD80B582B000AF78600B467B807B881C
:100A60001A4605217868FFF783FF00BF0837BD46A7
:100A700080BD80B582B000AF78600B467B807B88FC
:100A80001A4600217868FFF773FF00BF0837BD469C
:100A900080BD000080B584B000AF786040F29F1345
:100AA000FB810C4B4FF400521A800B4B14221A801E
:100AB0000A4B01221A80074B1B8819467868FFF7FA
:100AC000C8FFFB8919467868FFF7D3FF00BF1037CE
:100AD000BD4680BD840000208600002088000020E4
:100AE00080B586B000AFF860B9601346FB71FB6853
:100AF000BA681A60FB68FA791A71104B00221A80E2
:100B00000F4B00221A80FB799BB25B0099B2022343
:100B10000322B86802F084FB0346FB75FB7D002BC3
:100B200007D1F868FFF784FFF868FFF7B3FF0123E8
:100B300000E0002318461837BD4680BD860000201F
:100B40008800002080B582B000AF00F0A1FD00F069
:100B500063F800F0DBF900F0AFF800F0EBF800F01C
:100B60001DF900F049F900F07DF900F0A5F90BE05E
:100B700000224FF400611F4801F07AFE00224FF47A
:100B800080511C4801F074FE40221B491B48FFF7AE
:100B9000A7FF0346002BEBD0194801F057FA00F0ED
:100BA0005FFA78601548FFF707FF03461A46154BB2
:100BB0001A801248FFF724FF03469AB2124B1A809C
:100BC000104B1B881946114804F09EF80E4B1B88E9
:100BD00019460F4804F098F879680E4804F094F824
:100BE0004FF48061034801F05BFE4FF47A7000F02F
:100BF000B1FDD4E7000C0140E400002020020020F9
:100C00008C000020280200202A0200201C5A000824
:100C1000245A00082C5A000880B594B000AF07F1A0
:100C2000280328220021184604F0C3F807F1140312
:100C300000221A605A609A60DA601A613B1D002235
:100C40001A605A609A60DA600223BB620123BB63B8
:100C50001023FB6300237B6407F12803184602F08E
:100C6000C1FF0346002B01D000F042FA0F237B6145
:100C70000023BB610023FB6100233B6200237B62F6
:100C800007F114030021184603F02EFA0346002B47
:100C900001D000F02DFA02237B600023FB603B1D96
:100CA000184603F0AFFB0346002B01D000F020FAFA
:100CB00000BF5037BD4680BD80B584B000AF3B1D3E
:100CC00000221A605A609A60184B194A1A60174B32
:100CD00000229A60154B00221A73144B00221A75D9
:100CE000124B4FF46022DA61104B00225A600F4B16
:100CF00001221A610D4800F051FD0346002B01D07E
:100D000000F0F6F904237B600123BB600023FB6045
:100D10003B1D1946054801F005F80346002B01D09C
:100D200000F0E6F900BF1037BD4680BD8C00002002
:100D30000024014080B500AF164B174A1A60154BCE
:100D400010225A60134B00229A60124B0022DA6084
:100D5000104B00221A610F4B00225A610D4B0022EA
:100D60001A760C4B00225A760A4B00229A76094BCF
:100D70000022DA76074B00221A77064B00225A77B8
:100D8000044801F011FA0346002B01D000F0B0F93D
:100D900000BF80BDBC0000200064004080B500AFF3
:100DA000124B134A1A60114B124A5A600F4B002221
:100DB0009A600E4B0022DA600C4B4FF480421A61AD
:100DC0000A4B00225A61094B00229A61074B00220C
:100DD000DA61064B00221A62044801F07BFD0346EB
:100DE000002B01D000F084F900BF80BDE40000209A
:100DF00000540040A086010080B500AF174B184A90
:100E00001A60164B4FF482725A60144B00229A609B
:100E1000124B0022DA60114B00221A610F4B0022A4
:100E20005A610E4B4FF400729A610C4B0022DA614A
:100E30000A4B00221A62094B00225A62074B002219
:100E40009A62064B0A22DA62044803F047FC034622
:100E5000002B01D000F04CF900BF80BD380100200C
:100E60000030014080B500AF114B124A1A60104BA0
:100E70004FF4E1325A600E4B00229A600C4B002274
:100E8000DA600B4B00221A61094B0C225A61084BA5
:100E900000229A61064B0022DA61054803F0A2FCA9
:100EA0000346002B01D000F023F900BF80BD00BF36
:100EB000900100200038014080B500AF114B124A6C
:100EC0001A60104B4FF4E1325A600E4B00229A60C8
:100ED0000C4B0022DA600B4B00221A61094B0C22EA
:100EE0005A61084B00229A61064B0022DA610548DC
:100EF00003F078FC0346002B01D000F0F9F800BFA6
:100F000080BD00BFD80100200044004080B588B0FB
:100F100000AF07F1100300221A605A609A60DA608D
:100F2000494B9B69484A43F010039361464B9B69C8
:100F300003F01003FB60FB68434B9B69424A43F09C
:100F400004039361404B9B6903F00403BB60BB68DF
:100F50003D4B9B693C4A43F0080393613A4B9B69C4
:100F600003F008037B607B6800224FF400413748A0
:100F700001F07EFC012241F60841354801F078FC81
:100F800000224FF44141324801F072FC00224FF43C
:100F90008071304801F06CFC4FF480433B612E4B74
:100FA0007B610023BB6107F110031946274801F05C
:100FB000DBFA4FF400433B6101237B610023BB61FB
:100FC0000223FB6107F110031946204801F0CCFA17
:100FD00003233B6100237B610023BB6107F1100306
:100FE00019461B4801F0C0FA4DF608533B61012336
:100FF0007B610023BB610223FB6107F110031946EB
:10100000134801F0B1FA4FF408533B61124B7B6176
:101010000023BB6107F1100319460D4801F0A4FA43
:101020004FF480733B6101237B610023BB6102238A
:10103000FB6107F110031946064801F095FA00BF5D
:101040002037BD4680BD00BF0010024000100140A7
:10105000000C0140000801400000111000000000D9
:1010600080B582B000AF204800F070FC4FF47A7178
:101070001D4800F045FD1C4800F048FE78601A4805
:1010800000F012FD7868FFF7A5F913A3D3E9002358
:10109000FFF71AFA02460B46104619464FF00002B7
:1010A000124BFFF711FA02460B46104619460CA3E5
:1010B000D3E90023FFF732FB02460B4610461946E0
:1010C000FFF714FC03463B603B6818460837BD46F3
:1010D00080BD00BFAFF300806666666666660A4044
:1010E0000000000000FEAF408C00002000005940CE
:1010F00080B400AF72B600BFFEE7000080B485B0D8
:1011000000AF154B9B69144A43F001039361124BE6
:101110009B6903F00103BB60BB680F4BDB690E4AA0
:1011200043F08053D3610C4BDB6903F080537B6049
:101130007B680A4B5B68FB60FB6823F0E063FB6045
:10114000FB6843F08063FB60044AFB68536000BFA8
:101150001437BD4680BC70470010024000000140BB
:1011600080B588B000AF786007F1100300221A60E4
:101170005A609A60DA607B681B68144A934221D1F6
:10118000134B9B69124A43F400739361104B9B69A4
:1011900003F40073FB60FB680D4B9B690C4A43F042
:1011A000040393610A4B9B6903F00403BB60BB68B3
:1011B00011233B6103237B6107F1100319460548A6
:1011C00001F0D2F900BF2037BD4680BD00240140A8
:1011D000001002400008014080B588B000AF786080
:1011E00007F1100300221A605A609A60DA607B6887
:1011F0001B681C4A934231D11B4BDB691A4A43F0EE
:101200000073D361184BDB6903F00073FB60FB686C
:10121000154B9B69144A43F004039361124B9B697D
:1012200003F00403BB60BB684FF400633B61002321
:101230007B610023BB6107F1100319460B4801F0E5
:1012400093F94FF480533B6102237B610323FB61DD
:1012500007F110031946054801F086F900BF203751
:10126000BD4680BD006400400010024000080140FF
:1012700080B588B000AF786007F1100300221A60D3
:101280005A609A60DA607B681B68154A934223D1E2
:10129000144B9B69134A43F008039361114B9B69FC
:1012A00003F00803FB60FB68C0233B6112237B61F2
:1012B0000323FB6107F1100319460B4801F054F9B1
:1012C000084BDB69074A43F40013D361054BDB6924
:1012D00003F40013BB60BB6800BF2037BD4680BD70
:1012E0000054004000100240000C014080B588B05E
:1012F00000AF786007F1100300221A605A609A600C
:10130000DA607B681B681B4A93422FD11A4B9B699A
:10131000194A43F480539361174B9B6903F480533C
:10132000FB60FB68144B9B69134A43F00403936111
:10133000114B9B6903F00403BB60BB68A0233B61B6
:1013400002237B610323FB6107F1100319460B485D
:1013500001F00AF940233B6100237B610023BB615C
:1013600007F110031946054801F0FEF800BF2037C9
:10137000BD4680BD00300140001002400008014021
:1013800080B58AB000AF786007F1180300221A60B8
:101390005A609A60DA607B681B68374A934232D1A0
:1013A000364B9B69354A43F480439361334B9B69C9
:1013B00003F480437B617B69304B9B692F4A43F088
:1013C000040393612D4B9B6903F004033B613B696C
:1013D0004FF40073BB610223FB6103237B6207F1BF
:1013E00018031946264801F0BFF84FF48063BB612B
:1013F0000023FB6100233B6207F1180319462048D4
:1014000001F0B2F834E07B681B681E4A93422FD18A
:101410001A4BDB69194A43F40033D361174BDB697C
:1014200003F40033FB60FB68144B9B69134A43F0E1
:1014300004039361114B9B6903F00403BB60BB6819
:101440000423BB610223FB6103237B6207F11803C2
:1014500019460B4801F088F80823BB610023FB61A3
:1014600000233B6207F118031946054801F07CF898
:1014700000BF2837BD4680BD003801400010024043
:10148000000801400044004080B400AFFEE780B493
:1014900000AFFEE780B400AFFEE780B400AFFEE728
:1014A00080B400AFFEE780B400AF00BFBD4680BC93
:1014B000704780B400AF00BFBD4680BC704780B4A9
:1014C00000AF00BFBD4680BC704780B500AF00F0E4
:1014D00025F900BF80BD80B586B000AFF860B96067
:1014E0007A6000237B610AE0AFF300800146BB68AD
:1014F0005A1CBA60CAB21A707B6901337B617A697F
:101500007B689A42F0DB7B6818461837BD4680BD81
:1015100080B586B000AFF860B9607A6000237B6167
:1015200009E0BB685A1CBA601B78184600F078F8CE
:101530007B6901337B617A697B689A42F1DB7B6866
:1015400018461837BD4680BD80B483B000AF7860C0
:101550004FF0FF3318460C37BD4680BC704780B44F
:1015600083B000AF786039603B684FF400525A6036
:10157000002318460C37BD4680BC704780B483B04A
:1015800000AF7860012318460C37BD4680BC704719
:1015900080B485B000AFF860B9607A600023184667
:1015A0001437BD4680BC704780B586B000AF786008
:1015B000144A154BD31A7B617B693B61134B1B6843
:1015C000002B02D1114B124A1A60104B1A687B682B
:1015D00013443A699A4207D203F03AFC03460C22BC
:1015E0001A604FF0FF3309E0084B1B68FB60074BA4
:1015F0001A687B681344054A1360FB68184618375D
:10160000BD4680BD00500020000400002C020020D8
:101610008003002080B400AF00BFBD4680BC70478F
:1016200080B582B000AF7860391D4FF0FF330122E2
:10163000034803F027F97B6818460837BD4680BD8C
:1016400090010020FFF7E6FF0B480C490C4A0023ED
:1016500002E0D458C4500433C4188C42F9D3094A68
:10166000094C002301E013600432A242FBD303F0D3
:10167000F5FBFFF767FA70470000002068000020C4
:10168000B45A00086800002080030020FEE7000034
:1016900080B500AF084B1B68074A43F01003136086
:1016A000032000F02DFF0F2000F008F8FFF726FDC3
:1016B0000023184680BD00BF0020024080B582B0E4
:1016C00000AF7860124B1A68124B1B7819464FF422
:1016D0007A73B3FBF1F3B2FBF3F3184600F037FF74
:1016E0000346002B01D001230EE07B680F2B0AD8A4
:1016F000002279684FF0FF3000F00DFF064A7B684A
:101700001360002300E0012318460837BD4680BD62
:1017100000000020080000200400002080B400AF7A
:10172000054B1B781A46054B1B681344034A13608C
:1017300000BFBD4680BC704708000020300200207A
:1017400080B400AF024B1B681846BD4680BC704792
:101750003002002080B584B000AF7860FFF7F0FF62
:10176000B8607B68FB60FB68B3F1FF3F05D00A4BB4
:101770001B781A46FB681344FB6000BFFFF7E0FFCD
:101780000246BB68D31AFA689A42F7D800BF00BF76
:101790001037BD4680BD00BF0800002080B586B070
:1017A00000AF78600023FB7500233B610023BB6022
:1017B0000023FB607B68002B01D10123BEE07B6826
:1017C0009B68002B7B689B6A002B09D17B680022F9
:1017D000DA627B68002283F824207868FFF7C0FC77
:1017E000786800F0F1FB0346FB757B689B6A03F0A9
:1017F0001003002B40F09980FB7D002B40F095807A
:101800007B689B6A23F4885323F0020343F00202AF
:101810007B689A627B685A687B68DB691A437B68DD
:101820001B7B5B001343BA681343BB607B689B68F8
:10183000B3F5807F03D07B689B68012B02D14FF406
:10184000807300E000233A6913433B617B681B7D92
:10185000012B19D17B681B7B002B09D17B689B690D
:10186000013B5A033B69134343F400633B610BE0C4
:101870007B689B6A43F020027B689A627B68DB6A24
:1018800043F001027B68DA627B681B685B6823F4C3
:1018900069417B681B683A690A435A607B681B6828
:1018A0009A68284B13407A681268B9680B439360B2
:1018B0007B689B68B3F5807F03D07B689B68012BB6
:1018C00004D17B681B69013B1B05FB607B681B68BF
:1018D000DB6A23F470017B681B68FA680A43DA62EA
:1018E0007B681B689A68184B1340BA689A420BD100
:1018F0007B680022DA627B689B6A23F0030343F073
:1019000001027B689A6218E07B689B6A23F01203ED
:1019100043F010027B689A627B68DB6A43F0010245
:101920007B68DA620123FB7507E07B689B6A43F002
:1019300010027B689A620123FB75FB7D18461837FD
:10194000BD4680BDFDF7E1FFFE0E1FFF80B584B0F0
:1019500000AF78600023FB737B6893F82430012B81
:1019600001D1022398E07B68012283F82420786863
:1019700000F0D0FA0346FB73FB7B002B40F087801E
:101980007B689B6A23F4407323F0010343F4807265
:101990007B689A627B681B68414A934205D1414B40
:1019A0005B6803F47023002B15D17B689B6A23F4DA
:1019B00080127B689A627B681B685B6803F48063B3
:1019C000002B26D07B689B6A23F4405343F480525B
:1019D0007B689A621DE07B689B6A43F480127B6897
:1019E0009A627B681B682F4A934204D07B681B680D
:1019F0002B4A93420DD12B4B5B6803F48063002B81
:101A000007D07B689B6A23F4405343F480527B6881
:101A10009A627B689B6A03F48053002B06D07B6834
:101A2000DB6A23F006027B68DA6202E07B68002250
:101A3000DA627B68002283F824207B681B686FF0E1
:101A400002021A607B681B689B6803F46023B3F58D
:101A5000602F13D17B681B68114A934205D1114B4B
:101A60005B6803F47023002B08D17B681B689A68BD
:101A70007B681B6842F4A0029A600CE07B681B68DC
:101A80009A687B681B6842F480129A6003E07B6866
:101A9000002283F82420FB7B18461037BD4680BD0A
:101AA000002801400024014080B584B000AF786078
:101AB0000023FB737B6893F82430012B01D10223B0
:101AC0001AE07B68012283F82420786800F07CFA11
:101AD0000346FB73FB7B002B09D17B689B6A23F4D5
:101AE000885323F0010343F001027B689A627B680C
:101AF000002283F82420FB7B18461037BD4680BDAA
:101B000090B587B000AF7860396000237B61002317
:101B1000FB6000233B61FFF713FE78617B681B6865
:101B20009B6803F48073002B0BD07B689B6A43F0A7
:101B300020027B689A627B68002283F824200123BC
:101B4000D3E07B681B685B6803F48073002B31D1A2
:101B50007B681B68DB6A03F47003002B2AD121E049
:101B60003B68B3F1FF3F1DD03B68002B07D0FFF768
:101B7000E7FD02467B69D31A3A689A4212D27B6823
:101B80001B681B6803F00203002B0BD17B689B6A68
:101B900043F004027B689A627B68002283F8242069
:101BA0000323A2E07B681B681B6803F00203002B81
:101BB000D6D070E04F4B1C68022002F0D9FC0346DF
:101BC000B4FBF3F27B681B6819694B4B0B40002B8D
:101BD00018D17B681B68D968484B0B40002B11D18A
:101BE0007B681B681969464B0B40002B08D17B684A
:101BF0001B68D968434B0B40002B01D1142320E014
:101C000029231EE07B681B6819693D4B0B40002BA4
:101C100006D17B681B68D9683A4B0B40002B0DD06E
:101C20007B681B681969384B0B40002B08D17B6817
:101C30001B68D968344B0B40002B01D1542300E0C2
:101C4000FC2302FB03F33B6121E03B68B3F1FF3F60
:101C50001AD03B68002B07D0FFF772FD02467B6964
:101C6000D31A3A689A420FD2FB683A699A420BD962
:101C70007B689B6A43F004027B689A627B6800225F
:101C800083F82420032330E0FB680133FB60FB680A
:101C90003A699A42D9D87B681B686FF012021A60C1
:101CA0007B689B6A43F400727B689A627B681B685E
:101CB0009B6803F46023B3F5602F15D17B681B7B11
:101CC000002B11D17B689B6A23F480727B689A6237
:101CD0007B689B6A03F48053002B05D17B689B6A69
:101CE00043F001027B689A62002318461C37BD4608
:101CF00090BD00BF00000020244992242449920096
:101D000092244912922449004992240080B483B05D
:101D100000AF78607B681B68DB6C18460C37BD46EB
:101D200080BC704780B485B000AF78603960002314
:101D3000FB730023BB607B6893F82430012B01D137
:101D40000223DCE07B68012283F824203B685B6887
:101D5000062B1CD87B681B68596B3B685A68134676
:101D60009B001344053B1F2202FA03F3DB43194097
:101D70003B6818683B685A6813469B001344053B50
:101D800000FA03F27B681B680A435A633CE03B6835
:101D90005B680C2B1CD87B681B68196B3B685A6806
:101DA00013469B001344233B1F2202FA03F3DB4339
:101DB00019403B6818683B685A6813469B001344F7
:101DC000233B00FA03F27B681B680A431A631BE09B
:101DD0007B681B68D96A3B685A6813469B001344AA
:101DE000413B1F2202FA03F3DB4319403B681868AA
:101DF0003B685A6813469B001344413B00FA03F2C8
:101E00007B681B680A43DA623B681B68092B1CD994
:101E10007B681B68D9683B681A6813465B001344EB
:101E20001E3B072202FA03F3DB4319403B68986824
:101E30003B681A6813465B0013441E3B00FA03F22A
:101E40007B681B680A43DA6019E07B681B681969C4
:101E50003B681A6813465B001344072202FA03F337
:101E6000DB4319403B6898683B681A6813465B007F
:101E7000134400FA03F27B681B680A431A613B684B
:101E80001B68102B03D03B681B68112B32D17B6879
:101E90001B681D4A934225D17B681B689B6803F42D
:101EA0000003002B26D17B681B689A687B681B683F
:101EB00042F400029A603B681B68102B1AD1134B46
:101EC0001B68134AA2FB03239A0C13469B0013447E
:101ED0005B00BB6002E0BB68013BBB60BB68002BE2
:101EE000F9D107E07B689B6A43F020027B689A6225
:101EF0000123FB737B68002283F82420FB7B1846B8
:101F00001437BD4680BC704700240140000000200B
:101F100083DE1B4380B584B000AF78600023FB6094
:101F20000023BB607B681B689B6803F00103012BE7
:101F300040D07B681B689A687B681B6842F001028E
:101F40009A601F4B1B681F4AA2FB03239B0CBB60BC
:101F500002E0BB68013BBB60BB68002BF9D1FFF717
:101F6000EFFBF8601FE0FFF7EBFB0246FB68D31ABC
:101F7000022B18D97B681B689B6803F00103012BB7
:101F800011D07B689B6A43F010027B689A627B6881
:101F9000DB6A43F001027B68DA627B68002283F827
:101FA0002420012307E07B681B689B6803F0010382
:101FB000012BD8D1002318461037BD4680BD00BF85
:101FC0000000002083DE1B4380B584B000AF786042
:101FD0000023FB607B681B689B6803F00103012BF7
:101FE0002ED17B681B689A687B681B6822F001020F
:101FF0009A60FFF7A5FBF8601BE0FFF7A1FB024624
:10200000FB68D31A022B14D97B681B689B6803F00A
:102010000103012B0DD17B689B6A43F010027B68A2
:102020009A627B68DB6A43F001027B68DA62012313
:1020300007E07B681B689B6803F00103012BDCD081
:10204000002318461037BD4680BD000090B587B00C
:1020500000AF78600023FB750023FB607B6893F87A
:102060002430012B01D1022397E07B68012283F801
:1020700024207868FFF7A8FF0346FB757868FFF710
:1020800049FF0346FB75FB7D002B40F081807B6898
:102090009B6A23F4885323F0020343F002027B6817
:1020A0009A62404B1C68022002F062FA0346B4FBBD
:1020B000F3F35B00FB6002E0FB68013BFB60FB6845
:1020C000002BF9D17B681B689A687B681B6842F01B
:1020D00008029A60FFF734FB38611BE0FFF730FB22
:1020E00002463B69D31A0A2B14D97B681B689B688C
:1020F00003F00803002B0DD07B689B6A23F01203CA
:1021000043F010027B689A627B68002283F82420E7
:10211000012342E07B681B689B6803F00803002BE7
:10212000DCD17B681B689A687B681B6842F00402FC
:102130009A60FFF705FB38611BE0FFF701FB0246E1
:102140003B69D31A0A2B14D97B681B689B6803F080
:102150000403002B0DD07B689B6A23F0120343F02D
:1021600010027B689A627B68002283F82420012396
:1021700013E07B681B689B6803F00403002BDCD131
:102180007B689B6A23F0030343F001027B689A6239
:102190007B68002283F82420FB7D18461C37BD464F
:1021A00090BD00BF0000002080B584B000AF786013
:1021B0007B68002B01D10123EDE07B6893F8203090
:1021C000DBB2002B02D17868FFF706F87B681B684A
:1021D0001A687B681B6842F001021A60FFF7B0FAC8
:1021E000F86012E0FFF7ACFA0246FB68D31A0A2B3C
:1021F0000BD97B685B6A43F400327B685A627B6868
:10220000052283F820200123C5E07B681B685B68FA
:1022100003F00103002BE5D07B681B681A687B681C
:102220001B6822F002021A60FFF78AFAF86012E0D7
:10223000FFF786FA0246FB68D31A0A2B0BD97B6894
:102240005B6A43F400327B685A627B68052283F83C
:10225000202001239FE07B681B685B6803F002037A
:10226000002BE5D17B681B7E012B08D17B681B68A6
:102270001A687B681B6842F080021A6007E07B687E
:102280001B681A687B681B6822F080021A607B68F2
:102290005B7E012B08D17B681B681A687B681B6812
:1022A00042F040021A6007E07B681B681A687B688E
:1022B0001B6822F040021A607B689B7E012B08D1CC
:1022C0007B681B681A687B681B6842F020021A60F2
:1022D00007E07B681B681A687B681B6822F0200295
:1022E0001A607B68DB7E012B08D17B681B681A684B
:1022F0007B681B6822F010021A6007E07B681B688D
:102300001A687B681B6842F010021A607B681B7FAA
:10231000012B08D17B681B681A687B681B6842F038
:1023200008021A6007E07B681B681A687B681B68F4
:1023300022F008021A607B685B7F012B08D17B6862
:102340001B681A687B681B6842F004021A6007E089
:102350007B681B681A687B681B6822F004021A609D
:102360007B689A687B68DB681A437B681B691A4341
:102370007B685B6942EA03017B685B685A1E7B6885
:102380001B680A43DA617B6800225A627B6801227B
:1023900083F82020002318461037BD4680BD00007A
:1023A00080B485B000AF78607B6803F00703FB6002
:1023B0000C4BDB68BB60BA684FF6FF031340BB6091
:1023C000FB681A02BB68134343F0BF6343F4003356
:1023D000BB60044ABB68D36000BF1437BD4680BCF5
:1023E000704700BF00ED00E080B400AF044BDB6835
:1023F0001B0A03F007031846BD4680BC704700BFA8
:1024000000ED00E080B483B000AF03463960FB719B
:1024100097F90730002B0ADB3B68DAB20C4997F9D1
:1024200007301201D2B20B4483F800230AE03B6864
:10243000DAB20849FB7903F00F03043B1201D2B270
:102440000B441A7600BF0C37BD4680BC704700BFF6
:1024500000E100E000ED00E080B489B000AFF8607A
:10246000B9607A60FB6803F00703FB61FB69C3F1A5
:102470000703042B28BF0423BB61FB690433062B2D
:1024800002D9FB69033B00E000237B614FF0FF3280
:10249000BB6902FA03F3DA43BB681A407B699A40CE
:1024A0004FF0FF317B6901FA03F3D9437B680B409E
:1024B000134318462437BD4680BC704780B582B0B0
:1024C00000AF78607B68013BB3F1807F01D30123CB
:1024D0000FE00A4A7B68013B53600F214FF0FF3049
:1024E000FFF790FF054B00229A60044B07221A6009
:1024F000002318460837BD4680BD00BF10E000E04D
:1025000080B582B000AF78607868FFF749FF00BF00
:102510000837BD4680BD80B586B000AF0346B960C0
:102520007A60FB7300237B61FFF75EFF78617A6856
:10253000B9687869FFF790FF024697F90F301146A6
:102540001846FFF75FFF00BF1837BD4680BD80B556
:1025500082B000AF78607868FFF7B0FF0346184696
:102560000837BD4680BD000080B48BB000AF7860F6
:10257000396000237B6200233B6269E101227B6AB0
:1025800002FA03F3FB613B681B68FA691340BB6105
:10259000BA69FB699A4240F058813B685B689A4A85
:1025A00093425ED0984A934275D8984A934258D045
:1025B000964A93426FD8964A934252D0944A934295
:1025C00069D8944A93424CD0924A934263D8924A33
:1025D000934246D0904A93425DD8122B2AD8122BB0
:1025E00059D801A252F823F0632600083D260008BE
:1025F0004F26000891260008972600089726000815
:1026000097260008972600089726000897260008B6
:1026100097260008972600089726000897260008A6
:1026200097260008972600089726000845260008E8
:1026300059260008794A934213D02CE03B68DB68A6
:102640003B6229E03B68DB6804333B6224E03B6883
:10265000DB6808333B621FE03B68DB680C333B629E
:102660001AE03B689B68002B02D104233B6213E015
:102670003B689B68012B05D108233B627B68FA69A4
:102680001A6109E008233B627B68FA695A6103E03A
:1026900000233B6200E000BFBB69FF2B01D87B68D1
:1026A00001E07B6804337B61BB69FF2B02D87B6A46
:1026B0009B0002E07B6A083B9B003B617B691A68D8
:1026C0000F213B6901FA03F3DB431A40396A3B6986
:1026D00001FA03F31A437B691A603B685B6803F0F5
:1026E0008053002B00F0B1804D4B9B694C4A43F066
:1026F000010393614A4B9B6903F00103BB60BB6814
:10270000484A7B6A9B08023352F82330FB607B6A9D
:1027100003F003039B000F2202FA03F3DB43FA6882
:102720001340FB607B68404A934213D07B683F4A6A
:1027300093420DD07B683E4A934207D07B683D4A66
:10274000934201D1032306E0042304E0022302E0C4
:10275000012300E000237A6A02F003029200934012
:10276000FA681343FB602F497B6A9B080233FA68BF
:1027700041F823203B685B6803F48013002B06D0EC
:102780002D4B9A682C49BB6913438B6006E02A4B9A
:102790009A68BB69DB43284913408B603B685B68E0
:1027A00003F40013002B06D0234BDA682249BB69DF
:1027B0001343CB6006E0204BDA68BB69DB431E495C
:1027C0001340CB603B685B6803F40033002B06D0FA
:1027D000194B5A681849BB6913434B6006E0164B06
:1027E0005A68BB69DB43144913404B603B685B6824
:1027F00003F48033002B21D00F4B1A680E49BB69BC
:1028000013430B6021E000BF0000321000003110C4
:102810000000221000002110000012100000111012
:10282000001002400000014000080140000C01407F
:102830000010014000140140000401400B4B1A68D5
:10284000BB69DB43094913400B607B6A01337B6240
:102850003B681A687B6A22FA03F3002B7FF48EAE82
:1028600000BF00BF2C37BD4680BC7047000401404C
:1028700080B483B000AF78600B467B8013467B70DA
:102880007B78002B03D07A887B681A6103E07B8811
:102890001A047B681A6100BF0C37BD4680BC7047C4
:1028A00080B485B000AF78600B467B807B68DB68C6
:1028B000FB607A88FB6813401A04FB68D9437B8865
:1028C0000B401A437B681A6100BF1437BD4680BCB9
:1028D0007047000080B584B000AF78607B68002B43
:1028E00001D101232BE17B6893F83D30DBB2002B53
:1028F00006D17B68002283F83C207868FEF7B8FC9C
:102900007B68242283F83D207B681B681A687B68FB
:102910001B6822F001021A607B681B681A687B68DA
:102920001B6842F400421A607B681B681A687B6867
:102930001B6822F400421A6001F01EFDF8607B68FB
:102940005B68814A934207D8FB68804A934294BFF0
:1029500001230023DBB206E0FB687D4A934294BF6B
:1029600001230023DBB2002B01D00123E7E0FB6849
:10297000784AA2FB03239B0CBB607B681B685B68E7
:1029800023F03F017B681B68BA680A435A607B6882
:102990001B681B6A23F03F017B685B686A4A9342AD
:1029A00002D8BB68013309E0BB684FF4967202FBA2
:1029B00003F3694AA2FB03239B0901337A68126877
:1029C0000B4313627B681B68DB6923F44F4222F0E0
:1029D000FF027B685B685C498B4219D8FB68591E13
:1029E0007B685B685B00B1FBF3F3591C40F6FC733A
:1029F0000B40002B0AD0FB68591E7B685B685B00AC
:102A0000B1FBF3F30133C3F30B0351E004234FE0B5
:102A10007B689B68002B11D1FB68581E7B68596846
:102A20000B465B000B44B0FBF3F30133C3F30B0322
:102A3000002B0CBF01230023DBB212E0FB68581E01
:102A40007B6859680B469B000B4499000B44B0FB14
:102A5000F3F30133C3F30B03002B0CBF012300235B
:102A6000DBB2002B01D0012322E07B689B68002BA6
:102A70000ED1FB68581E7B6859680B465B000B44FF
:102A8000B0FBF3F30133C3F30B0343F400430FE054
:102A9000FB68581E7B6859680B469B000B449900E5
:102AA0000B44B0FBF3F30133C3F30B0343F4404394
:102AB000796809681343CB617B681B681B6823F046
:102AC000C0017B68DA697B681B6A1A437B681B68F4
:102AD0000A431A607B681B689B6823F4034323F056
:102AE000FF037A6811697A68D26811437A681268BC
:102AF0000B4393607B681B68DB6823F0FF017B68F6
:102B00005A697B689B691A437B681B680A43DA60D1
:102B10007B681B681A687B681B6842F001021A60B8
:102B20007B6800221A647B68202283F83D207B6842
:102B300000221A637B68002283F83E200023184697
:102B40001037BD4680BD00BFA08601007F841E00F7
:102B5000FF083D0083DE1B43D34D621080B588B073
:102B600002AFF860084611461A4603467B810B46C1
:102B70003B811346FB80FEF7E3FD7861FB6893F829
:102B80003D30DBB2202B40F0D9807B6900931923C4
:102B900001226D49F86800F0EFFD0346002B01D0DB
:102BA0000223CCE0FB6893F83C30012B01D10223D7
:102BB000C5E0FB68012283F83C20FB681B681B68AA
:102BC00003F00103012B07D0FB681B681A68FB6840
:102BD0001B6842F001021A60FB681B681A68FB68F8
:102BE0001B6822F400621A60FB68212283F83D20F2
:102BF000FB68402283F83E20FB6800221A64FB68D1
:102C00003A6A5A62FB68BA8C5A85FB685B8D9AB245
:102C1000FB681A85FB684D4ADA62F8883A89798937
:102C20007B690193BB6A00930346F86800F026FCB9
:102C30000346002B52D0012381E07A69B96AF86813
:102C400000F0B4FE0346002B0DD0FB681B6C042B78
:102C500007D1FB681B681A68FB681B6842F40072A6
:102C60001A6001236BE0FB685B6A1A78FB681B68DB
:102C70001A61FB685B6A5A1CFB685A62FB681B8D11
:102C8000013B9AB2FB681A85FB685B8D9BB2013BE6
:102C90009AB2FB685A85FB681B685B6903F0040302
:102CA000042B1BD1FB681B8D002B17D0FB685B6AC4
:102CB0001A78FB681B681A61FB685B6A5A1CFB6820
:102CC0005A62FB681B8D013B9AB2FB681A85FB6850
:102CD0005B8D9BB2013B9AB2FB685A85FB681B8DEA
:102CE000002BAAD17A69B96AF86800F0A7FE0346FA
:102CF000002B0DD0FB681B6C042B07D1FB681B68F5
:102D00001A68FB681B6842F400721A60012316E01F
:102D1000FB681B681A68FB681B6842F400721A6043
:102D2000FB68202283F83D20FB68002283F83E20C8
:102D3000FB68002283F83C20002300E002231846B1
:102D40001837BD4680BD00BF020010000000FFFF25
:102D500080B58CB002AFF860084611461A460346AB
:102D60007B810B463B811346FB8000233B62FEF7D1
:102D7000E7FC7862FB6893F83D30DBB2202B40F033
:102D800044827B6A0093192301228249F86800F08B
:102D9000F3FC0346002B01D0022337E2FB6893F8D3
:102DA0003C30012B01D1022330E2FB68012283F881
:102DB0003C20FB681B681B6803F00103012B07D054
:102DC000FB681B681A68FB681B6842F001021A6006
:102DD000FB681B681A68FB681B6822F400621A60B3
:102DE000FB68222283F83D20FB68402283F83E20C6
:102DF000FB6800221A64FB683A6B5A62FB68BA8E61
:102E00005A85FB685B8D9AB2FB681A85FB68624A3B
:102E1000DA62F8883A8979897B6A0193BB6B0093FF
:102E20000346F86800F0C0FB0346002B01D00123E5
:102E3000ECE1FB681B8D002B13D10023FB61FB68C9
:102E40001B685B69FB61FB681B689B69FB61FB6935
:102E5000FB681B681A68FB681B6842F400721A6002
:102E6000C0E1FB681B8D012B1ED1FB681B681A6833
:102E7000FB681B6822F480621A6072B600BF0023F0
:102E8000BB61FB681B685B69BB61FB681B689B6976
:102E9000BB61BB69FB681B681A68FB681B6842F46E
:102EA00000721A6062B635E0FB681B8D022B1ED1E2
:102EB000FB681B681A68FB681B6842F400621A60B2
:102EC00072B600BF00237B61FB681B685B697B6196
:102ED000FB681B689B697B617B69FB681B681A68E0
:102EE000FB681B6822F480621A6062B612E0FB681D
:102EF0001B681A68FB681B6842F480621A60002332
:102F00003B61FB681B685B693B61FB681B689B69F5
:102F10003B613B6966E1FB681B8D032B00F21F815F
:102F2000FB681B8D012B23D17A6AB96BF86800F01E
:102F3000CDFD0346002B01D0012367E1FB681B6830
:102F40001A69FB685B6AD2B21A70FB685B6A5A1C2A
:102F5000FB685A62FB681B8D013B9AB2FB681A85BD
:102F6000FB685B8D9BB2013B9AB2FB685A8539E1E5
:102F7000FB681B8D022B52D17B6A0093BB6B002236
:102F80000649F86800F0F8FB0346002B08D001233F
:102F90003CE100BF020010000000FFFF0400010040
:102FA00072B600BFFB681B681A68FB681B6842F4B6
:102FB00000721A60FB681B681A69FB685B6AD2B210
:102FC0001A70FB685B6A5A1CFB685A62FB681B8DAF
:102FD000013B9AB2FB681A85FB685B8D9BB2013B93
:102FE0009AB2FB685A8562B600BFFB681B681A6913
:102FF000FB685B6AD2B21A70FB685B6A5A1CFB689A
:103000005A62FB681B8D013B9AB2FB681A85FB680C
:103010005B8D9BB2013B9AB2FB685A85E2E07B6A0A
:103020000093BB6B00227B49F86800F0A5FB0346C8
:10303000002B01D00123E9E0FB681B681A68FB68DC
:103040001B6822F480621A6072B600BFFB681B68BE
:103050001A69FB685B6AD2B21A70FB685B6A5A1C19
:10306000FB685A62FB681B8D013B9AB2FB681A85AC
:10307000FB685B8D9BB2013B9AB2FB685A85664B3D
:103080001B68DB08654AA2FB03231A0A13469B0050
:103090001344DA00D31A3B623B6A013B3B623B6A52
:1030A000002B18D1FB6800221A63FB68202283F8EA
:1030B0003D20FB68002283F83E20FB681B6C43F038
:1030C0002002FB681A6462B600BFFB68002283F826
:1030D0003C2001239AE0FB681B685B6903F0040352
:1030E000042BD9D1FB681B681A68FB681B6842F483
:1030F00000721A60FB681B681A69FB685B6AD2B2CF
:103100001A70FB685B6A5A1CFB685A62FB681B8D6D
:10311000013B9AB2FB681A85FB685B8D9BB2013B51
:103120009AB2FB685A8562B600BFFB681B681A69D1
:10313000FB685B6AD2B21A70FB685B6A5A1CFB6858
:103140005A62FB681B8D013B9AB2FB681A85FB68CB
:103150005B8D9BB2013B9AB2FB685A8542E07A6A6A
:10316000B96BF86800F0B2FC0346002B01D00123D4
:103170004CE0FB681B681A69FB685B6AD2B21A7084
:10318000FB685B6A5A1CFB685A62FB681B8D013B3B
:103190009AB2FB681A85FB685B8D9BB2013B9AB2C1
:1031A000FB685A85FB681B685B6903F00403042B0A
:1031B00018D1FB681B681A69FB685B6AD2B21A7087
:1031C000FB685B6A5A1CFB685A62FB681B8D013BFB
:1031D0009AB2FB681A85FB685B8D9BB2013B9AB281
:1031E000FB685A85FB681B8D002B7FF494AEFB684F
:1031F000202283F83D20FB68002283F83E20FB68F4
:10320000002283F83C20002300E0022318462837E0
:10321000BD4680BD040001000000002089B5F814FF
:1032200080B58AB002AFF8607A603B600B467B8164
:10323000FEF786FAF8610023BB61FB6893F83D3026
:10324000DBB2202B40F01181FB690093192301228E
:103250008849F86800F090FA0346002B01D0022359
:1032600004E1FB6893F83C30012B01D10223FDE01F
:10327000FB68012283F83C20FB681B681B6803F095
:103280000103012B07D0FB681B681A68FB681B68E9
:1032900042F001021A60FB681B681A68FB681B6831
:1032A00022F400621A60FB68242283F83D20FB6848
:1032B00000221A64FB68704ADA62FB681B681A68AD
:1032C000FB681B6842F480721A60FB6900933B68DC
:1032D00000224FF00111F86800F04EFA0346002B6F
:1032E0000DD0FB681B681B6803F48073B3F5807F07
:1032F00003D1FB684FF400721A640323B6E07B89A4
:10330000DBB21A46FB681B6802F0FE021A61FEF788
:1033100017FAF861FB681B685B6903F00203022B74
:103320000CBF01230023DBB2FB75FB681B685B69E4
:1033300003F48063B3F5806F0CBF01230023DBB27D
:10334000BB7525E0FEF7FCF90246FB69D31A3A6823
:103350009A4202D33B68002B03D1FB68A02283F87A
:103360003D20FB681B685B6903F00203022B0CBF66
:1033700001230023DBB2FB75FB681B685B6903F468
:103380008063B3F5806F0CBF01230023DBB2BB75F4
:10339000FB6893F83D30DBB2A02B05D0FB7D002B02
:1033A00002D1BB7D002BCDD0FB68202283F83D20CD
:1033B000FB681B685B6903F00203022B29D1FB68E1
:1033C0001B681A68FB681B6842F400721A600023CD
:1033D0003B61FB681B685B693B61FB681B689B6921
:1033E0003B613B69FB690093192301222149F8687D
:1033F00000F0C2F90346002B01D0012336E0FB6840
:10340000202283F83D20FB68002283F83C20002323
:103410002CE0FB681B681A68FB681B6842F40072AA
:103420001A60FB681B686FF480625A61FB69009345
:10343000192301220F49F86800F09EF90346002B7A
:1034400001D0012312E0BB690133BB61BA697B681B
:103450009A42FFF432AFFB68202283F83D20FB68DC
:10346000002283F83C20012300E002231846203785
:10347000BD4680BD020010000000FFFF80B588B08F
:1034800002AFF860084611461A4603467B810B4698
:103490003B811346FB80FB681B681A68FB681B684E
:1034A00042F480721A607B6A00933B6A00224FF0FC
:1034B0000111F86800F060F90346002B0DD0FB689D
:1034C0001B681B6803F48073B3F5807F03D1FB682E
:1034D0004FF400721A6403235FE07B89DBB21A4663
:1034E000FB681B6802F0FE021A617B6A3A6A2D498A
:1034F000F86800F0BBF90346002B01D001234CE033
:1035000000237B61FB681B685B697B61FB681B6850
:103510009B697B617B697A6A396AF86800F046FAD0
:103520000346002B0DD0FB681B6C042B07D1FB68F6
:103530001B681A68FB681B6842F400721A6001235A
:103540002BE0FB88012B05D13B89DAB2FB681B68B5
:103550001A6121E03B891B0A9BB2DAB2FB681B6847
:103560001A617A6A396AF86800F020FA0346002B7B
:103570000DD0FB681B6C042B07D1FB681B681A6815
:10358000FB681B6842F400721A60012305E03B8966
:10359000DAB2FB681B681A61002318461837BD466B
:1035A00080BD00BF0200010080B588B002AFF860A6
:1035B000084611461A4603467B810B463B8113465B
:1035C000FB80FB681B681A68FB681B6842F480621A
:1035D0001A60FB681B681A68FB681B6842F48072FB
:1035E0001A607B6A00933B6A00224FF00111F86871
:1035F00000F0C2F80346002B0DD0FB681B681B6867
:1036000003F48073B3F5807F03D1FB684FF400723D
:103610001A640323AAE07B89DBB21A46FB681B68A5
:1036200002F0FE021A617B6A3A6A5249F86800F0B9
:103630001DF90346002B01D0012397E000237B6195
:10364000FB681B685B697B61FB681B689B697B612E
:103650007B697A6A396AF86800F0A8F90346002B9A
:103660000DD0FB681B6C042B07D1FB681B681A6824
:10367000FB681B6842F400721A60012376E0FB8845
:10368000012B05D13B89DAB2FB681B681A6121E086
:103690003B891B0A9BB2DAB2FB681B681A617A6A23
:1036A000396AF86800F082F90346002B0DD0FB68F8
:1036B0001B6C042B07D1FB681B681A68FB681B682E
:1036C00042F400721A60012350E03B89DAB2FB68D1
:1036D0001B681A617A6A396AF86800F067F903466C
:1036E000002B0DD0FB681B6C042B07D1FB681B68FB
:1036F0001A68FB681B6842F400721A60012335E007
:10370000FB681B681A68FB681B6842F480721A60C9
:103710007B6A00933B6A00224FF00111F86800F0C9
:103720002BF80346002B0DD0FB681B681B6803F4C5
:103730008073B3F5807F03D1FB684FF400721A6485
:10374000032313E07B89DBB243F00103DAB2FB68A9
:103750001B681A617B6A3A6A0649F86800F086F8C5
:103760000346002B01D0012300E000231846183740
:10377000BD4680BD0200010080B584B000AFF86096
:10378000B9603B601346FB7148E03B68B3F1FF3F13
:1037900044D0FDF7D5FF0246BB69D31A3A689A4276
:1037A00002D33B68002B39D1BB681B0CDBB2012B69
:1037B0000DD1FB681B685B69DA43BB6813409BB2A1
:1037C000002B0CBF01230023DBB21A460CE0FB6880
:1037D0001B689B69DA43BB6813409BB2002B0CBF8C
:1037E00001230023DBB21A46FB799A4216D1FB680B
:1037F00000221A63FB68202283F83D20FB68002228
:1038000083F83E20FB681B6C43F02002FB681A64BF
:10381000FB68002283F83C20012323E0BB681B0CDB
:10382000DBB2012B0DD1FB681B685B69DA43BB6817
:1038300013409BB2002B0CBF01230023DBB21A46BE
:103840000CE0FB681B689B69DA43BB6813409BB2C2
:10385000002B0CBF01230023DBB21A46FB799A42EE
:1038600093D0002318461037BD4680BD80B584B084
:1038700000AFF860B9607A603B6071E0FB681B687C
:103880005B6903F48063B3F5806F23D1FB681B6829
:103890001A68FB681B6842F400721A60FB681B68B8
:1038A0006FF480625A61FB6800221A63FB68202271
:1038B00083F83D20FB68002283F83E20FB681B6CE8
:1038C00043F00402FB681A64FB68002283F83C2082
:1038D000012367E07B68B3F1FF3F41D0FDF730FF84
:1038E00002463B68D31A7A689A4202D37B68002B5F
:1038F00036D1BB681B0CDBB2012B0CD1FB681B68FB
:103900005B69DA43BB6813409BB2002B14BF0123F1
:103910000023DBB20BE0FB681B689B69DA43BB68E2
:1039200013409BB2002B14BF01230023DBB2002BFA
:1039300016D0FB6800221A63FB68202283F83D2022
:10394000FB68002283F83E20FB681B6C43F02002DA
:10395000FB681A64FB68002283F83C20012321E005
:10396000BB681B0CDBB2012B0CD1FB681B685B69CD
:10397000DA43BB6813409BB2002B14BF0123002322
:10398000DBB20BE0FB681B689B69DA43BB68134042
:103990009BB2002B14BF01230023DBB2002B7FF46A
:1039A0006DAF002318461037BD4680BD80B584B08A
:1039B00000AFF860B9607A6034E0F86800F0E3F8CE
:1039C0000346002B01D0012334E0BB68B3F1FF3F75
:1039D00028D0FDF7B5FE02467B68D31ABA689A4232
:1039E00002D3BB68002B1DD1FB681B685B6903F029
:1039F0008003802B16D0FB6800221A63FB6820220C
:103A000083F83D20FB68002283F83E20FB681B6C96
:103A100043F02002FB681A64FB68002283F83C2014
:103A2000012307E0FB681B685B6903F08003802BC0
:103A3000C3D1002318461037BD4680BD80B584B081
:103A400000AFF860B9607A6034E0F86800F09BF885
:103A50000346002B01D0012334E0BB68B3F1FF3FE4
:103A600028D0FDF76DFE02467B68D31ABA689A42E9
:103A700002D3BB68002B1DD1FB681B685B6903F098
:103A80000403042B16D0FB6800221A63FB68202273
:103A900083F83D20FB68002283F83E20FB681B6C06
:103AA00043F02002FB681A64FB68002283F83C2084
:103AB000012307E0FB681B685B6903F00403042B28
:103AC000C3D1002318461037BD4680BD80B584B0F1
:103AD00000AFF860B9607A6049E0FB681B685B6919
:103AE00003F01003102B19D1FB681B686FF0100254
:103AF0005A61FB6800221A63FB68202283F83D208C
:103B0000FB68002283F83E20FB681A6CFB681A648D
:103B1000FB68002283F83C20012330E0FDF710FE13
:103B200002467B68D31ABA689A4202D3BB68002B5C
:103B30001DD1FB681B685B6903F04003402B16D066
:103B4000FB6800221A63FB68202283F83D20FB6893
:103B5000002283F83E20FB681B6C43F02002FB68C8
:103B60001A64FB68002283F83C20012307E0FB680D
:103B70001B685B6903F04003402BAED1002318465D
:103B80001037BD4680BD80B483B000AF78607B68DD
:103B90001B685B6903F48063B3F5806F1BD17B689E
:103BA0001B686FF480625A617B6800221A637B682D
:103BB000202283F83D207B68002283F83E207B682A
:103BC0001B6C43F004027B681A647B68002283F854
:103BD0003C20012300E0002318460C37BD4680BC82
:103BE0007047000080B586B000AF78607B68002B1E
:103BF00001D1012372E27B681B6803F00103002BF3
:103C000000F08780924B5B6803F00C03042B0CD010
:103C10008F4B5B6803F00C03082B12D18C4B5B6855
:103C200003F48033B3F5803F0BD1894B1B6803F459
:103C30000033002B6CD07B685B68002B68D10123BC
:103C40004CE27B685B68B3F5803F06D1804B1B6814
:103C50007F4A43F4803313602EE07B685B68002B5F
:103C60000CD17B4B1B687A4A23F480331360784B6A
:103C70001B68774A23F4802313601DE07B685B6830
:103C8000B3F5A02F0CD1724B1B68714A43F480230B
:103C900013606F4B1B686E4A43F4803313600BE074
:103CA0006B4B1B686A4A23F480331360684B1B68B4
:103CB000674A23F4802313607B685B68002B13D072
:103CC000FDF73EFD386108E0FDF73AFD02463B692D
:103CD000D31A642B01D9032300E25D4B1B6803F464
:103CE0000033002BF0D014E0FDF72AFD386108E026
:103CF000FDF726FD02463B69D31A642B01D9032345
:103D0000ECE1534B1B6803F40033002BF0D100E0CF
:103D100000BF7B681B6803F00203002B63D04C4B91
:103D20005B6803F00C03002B0BD0494B5B6803F07E
:103D30000C03082B1CD1464B5B6803F48033002B2B
:103D400016D1434B1B6803F00203002B05D07B68A0
:103D50001B69012B01D00123C0E13D4B1B6823F0FF
:103D6000F8027B685B69DB00394913430B603AE07A
:103D70007B681B69002B20D0364B01221A60FDF7AF
:103D8000DFFC386108E0FDF7DBFC02463B69D31A33
:103D9000022B01D90323A1E12D4B1B6803F0020381
:103DA000002BF0D02A4B1B6823F0F8027B685B697C
:103DB000DB00274913430B6015E0264B00221A60F5
:103DC000FDF7BEFC386108E0FDF7BAFC02463B692E
:103DD000D31A022B01D9032380E11D4B1B6803F08A
:103DE0000203002BF0D17B681B6803F00803002B53
:103DF0003AD07B689B69002B19D0174B01221A60BF
:103E0000FDF79EFC386108E0FDF79AFC02463B692D
:103E1000D31A022B01D9032360E10D4B5B6A03F037
:103E20000203002BF0D0012000F0CEFA1CE00A4B78
:103E300000221A60FDF784FC38610FE0FDF780FC7A
:103E400002463B69D31A022B08D9032346E100BF7F
:103E5000001002400000424280044242924B5B6AE2
:103E600003F00203002BE9D17B681B6803F0040315
:103E7000002B00F0A6800023FB758B4BDB6903F061
:103E80008053002B0DD1884BDB69874A43F0805368
:103E9000D361854BDB6903F08053BB60BB680123B2
:103EA000FB75824B1B6803F48073002B18D17F4B8A
:103EB0001B687E4A43F480731360FDF741FC386150
:103EC00008E0FDF73DFC02463B69D31A642B01D99B
:103ED000032303E1754B1B6803F48073002BF0D0C0
:103EE0007B68DB68012B06D16F4B1B6A6E4A43F07F
:103EF000010313622DE07B68DB68002B0CD16A4B59
:103F00001B6A694A23F001031362674B1B6A664A06
:103F100023F0040313621CE07B68DB68052B0CD1E3
:103F2000614B1B6A604A43F0040313625E4B1B6AD9
:103F30005D4A43F0010313620BE05B4B1B6A5A4A74
:103F400023F001031362584B1B6A574A23F0040302
:103F500013627B68DB68002B15D0FDF7F1FB38613D
:103F60000AE0FDF7EDFB02463B69D31A41F28832C5
:103F7000934201D90323B1E04B4B1B6A03F00203C8
:103F8000002BEED014E0FDF7DBFB38610AE0FDF713
:103F9000D7FB02463B69D31A41F28832934201D9DA
:103FA00003239BE0404B1B6A03F00203002BEED17E
:103FB000FB7D012B05D13C4BDB693B4A23F0805351
:103FC000D3617B68DB69002B00F08780364B5B6830
:103FD00003F00C03082B61D07B68DB69022B46D110
:103FE000334B00221A60FDF7ABFB386108E0FDF7A8
:103FF000A7FB02463B69D31A022B01D903236DE0CC
:10400000294B1B6803F00073002BF0D17B681B6AFF
:10401000B3F5803F08D1244B5B6823F400327B6802
:104020009B68214913434B601F4B5B6823F4741258
:104030007B68196A7B685B6A0B431B4913434B60BF
:104040001B4B01221A60FDF77BFB386108E0FDF78E
:1040500077FB02463B69D31A022B01D903233DE0CB
:10406000114B1B6803F00073002BF0D035E0104BB0
:1040700000221A60FDF764FB386108E0FDF760FB81
:1040800002463B69D31A022B01D9032326E0064BD3
:104090001B6803F00073002BF0D11EE07B68DB6926
:1040A000012B07D1012319E00010024000700040ED
:1040B000600042420B4B5B68FB60FB6803F480329C
:1040C0007B681B6A9A4206D1FB6803F470127B6816
:1040D0005B6A9A4201D0012300E00023184618379A
:1040E000BD4680BD0010024080B584B000AF78604E
:1040F00039607B68002B01D10123D0E06A4B1B683B
:1041000003F007033A689A4210D9674B1B6823F003
:10411000070265493B6813430B60634B1B6803F060
:1041200007033A689A4201D00123B8E07B681B6814
:1041300003F00203002B20D07B681B6803F004030C
:10414000002B05D0594B5B68584A43F4E063536039
:104150007B681B6803F00803002B05D0534B5B689A
:10416000524A43F460535360504B5B6823F0F002B3
:104170007B689B684D4913434B607B681B6803F069
:104180000103002B40D07B685B68012B07D1474BB4
:104190001B6803F40033002B15D101237FE07B68FB
:1041A0005B68022B07D1414B1B6803F00073002BA7
:1041B00009D1012373E03D4B1B6803F00203002B80
:1041C00001D101236BE0394B5B6823F003027B686C
:1041D0005B68364913434B60FDF7B2FAF8600AE0BA
:1041E000FDF7AEFA0246FB68D31A41F288329342D9
:1041F00001D9032353E02D4B5B6803F00C027B686D
:104200005B689B009A42EBD1274B1B6803F00703C6
:104210003A689A4210D2244B1B6823F007022249C5
:104220003B6813430B60204B1B6803F007033A689D
:104230009A4201D0012332E07B681B6803F004033B
:10424000002B08D0194B5B6823F4E0627B68DB68C5
:10425000164913434B607B681B6803F00803002B6F
:1042600009D0124B5B6823F460527B681B69DB004A
:104270000E4913434B6000F021F802460B4B5B687C
:104280001B0903F00F030A49CB5C22FA03F3094A26
:104290001360094B1B681846FDF710FA00231846F7
:1042A0001037BD4680BD00BF002002400010024014
:1042B000385A0008000000200400002080B487B0B5
:1042C00000AF0023FB600023BB6000237B61002361
:1042D0007B6000233B611E4B5B68FB60FB6803F067
:1042E0000C03042B02D0082B03D027E0194B3B61B1
:1042F00027E0FB689B0C03F00F03174AD35C7B603D
:10430000FB6803F48033002B10D0114B5B685B0C0F
:1043100003F00103114AD35CBB607B680D4A03FBC9
:1043200002F2BB68B2FBF3F37B6104E07B680C4AEA
:1043300002FB03F37B617B693B6102E0054B3B6160
:1043400000BF3B6918461C37BD4680BC704700BFA4
:104350000010024000127A00505A0008605A00080B
:1043600000093D0080B400AF024B1B681846BD46F3
:1043700080BC70470000002080B500AFFFF7F2FF5F
:104380000246054B5B681B0A03F007030349CB5C3D
:1043900022FA03F3184680BD00100240485A000874
:1043A00080B500AFFFF7DEFF0246054B5B68DB0A16
:1043B00003F007030349CB5C22FA03F3184680BDE0
:1043C00000100240485A000880B485B000AF786001
:1043D0000A4B1B680A4AA2FB03235B0A7A6802FBAA
:1043E00003F3FB6000BFFB685A1EFA60002BF9D193
:1043F00000BF00BF1437BD4680BC704700000020DE
:10440000D34D621080B586B000AF786000233B6169
:104410000023FB607B681B6803F00103002B7DD049
:104420000023FB754F4BDB6903F08053002B0DD14C
:104430004C4BDB694B4A43F08053D361494BDB69FA
:1044400003F08053BB60BB680123FB75464B1B68C0
:1044500003F48073002B18D1434B1B68424A43F48A
:1044600080731360FDF76CF9386108E0FDF768F9B7
:1044700002463B69D31A642B01D903236DE03A4B02
:104480001B6803F48073002BF0D0364B1B6A03F4D7
:104490004073FB60FB68002B2ED07B685B6803F4E5
:1044A0004073FA689A4227D02E4B1B6A23F440735C
:1044B000FB602E4B01221A602C4B00221A60294A05
:1044C000FB681362FB6803F00103002B14D0FDF7B7
:1044D00037F938610AE0FDF733F902463B69D31A30
:1044E00041F28832934201D9032336E01D4B1B6A07
:1044F00003F00203002BEED01A4B1B6A23F4407228
:104500007B685B68174913430B62FB7D012B05D168
:10451000144BDB69134A23F08053D3617B681B681B
:1045200003F00203002B08D00E4B5B6823F44042DB
:104530007B689B680B4913434B607B681B6803F0E7
:104540001003002B08D0074B5B6823F480027B68C4
:10455000DB68044913434B60002318461837BD46F7
:1045600080BD00BF00100240007000404004424285
:1045700080B588B000AF786000237B610023FB61C9
:1045800000233B610023FB600023BB617B68102B91
:104590000AD07B68102B00F28A807B68012B45D003
:1045A0007B68022B75D082E0464B5B68FB60454B15
:1045B0001B6803F08073002B7BD0FB689B0C03F01F
:1045C0000F03414AD35C3B61FB6803F48033002B4B
:1045D00015D03C4B5B685B0C03F001033B4AD35C9A
:1045E0007B61FB6803F48033002B0DD0384A7B6974
:1045F000B2FBF3F23B6902FB03F3FB6104E03B69AE
:10460000344A02FB03F3FB612E4B5B6803F4800327
:10461000B3F5800F02D1FB69BB614AE0FB695B0027
:104620002D4AA2FB03235B08BB6142E0254B1B6ABA
:10463000FB60FB6803F44073B3F5807F08D1FB682F
:1046400003F00203002B03D04FF40043BB611FE0D3
:10465000FB6803F44073B3F5007F09D1194B5B6A23
:1046600003F00203002B03D049F64043BB610FE087
:10467000FB6803F44073B3F5407F1CD1114B1B68FA
:1046800003F40033002B16D04FF22443BB6112E039
:1046900011E0FFF785FE02460A4B5B689B0B03F0B7
:1046A000030301335B00B2FBF3F3BB6104E000BF23
:1046B00002E000BF00E000BFBB6918462037BD46DE
:1046C00080BD00BF00100240645A0008745A000800
:1046D00000127A0000093D00ABAAAAAA80B582B0F8
:1046E00000AF78607B68002B01D1012376E07B6806
:1046F0005B6A002B08D17B685B68B3F5827F09D0C9
:104700007B680022DA6105E07B6800221A617B6821
:1047100000225A617B6800229A627B6893F85130CC
:10472000DBB2002B06D17B68002283F8502078682A
:10473000FCF7DCFD7B68022283F851207B681B6854
:104740001A687B681B6822F040021A607B685B680D
:1047500003F482727B689B6803F404431A437B680A
:10476000DB6803F400631A437B681B6903F00203F0
:104770001A437B685B6903F001031A437B689B69FA
:1047800003F400731A437B68DB6903F038031A43B0
:104790007B681B6A03F0800342EA03017B689B6A23
:1047A00003F400527B681B680A431A607B689B69AC
:1047B0001A0C7B681B6802F004025A607B681B6855
:1047C000DA697B681B6822F40062DA617B68002288
:1047D0005A657B68012283F8512000231846083768
:1047E000BD4680BD80B582B000AF78607B68002B8D
:1047F00001D1012342E07B6893F84130DBB2002B0A
:1048000006D17B68002283F840207868FCF7B8FD69
:104810007B68242283F841207B681B68DA687B6808
:104820001B6822F40052DA60786800F01DF97B689A
:104830001B681A697B681B6822F490421A617B68C6
:104840001B685A697B681B6822F02A025A617B68E0
:104850001B68DA687B681B6842F40052DA607B6888
:1048600000225A647B68202283F841207B68202242
:1048700083F842207B6800225A63002318460837D9
:10488000BD4680BD80B58AB002AFF860B9603B60BC
:104890001346FB8000237B61FB6893F84130DBB259
:1048A000202B6DD1BB68002B02D0FB88002B01D1DF
:1048B000012366E0FB6800225A64FB68212283F82A
:1048C0004120FCF73DFF7861FB68FA889A84FB6819
:1048D000FA88DA84FB689B68B3F5805F08D1FB68CF
:1048E0001B69002B04D10023FB61BB68BB6103E0A3
:1048F000BB68FB610023BB612AE03B6800937B69D6
:1049000000228021F86800F040F80346002B01D017
:10491000032336E0FB69002B0BD1BB691B881A46C9
:10492000FB681B68C2F308025A60BB690233BB61B3
:1049300007E0FB691A78FB681B685A60FB69013362
:10494000FB61FB68DB8C9BB2013B9AB2FB68DA84AB
:10495000FB68DB8C9BB2002BCFD13B6800937B695B
:1049600000224021F86800F010F80346002B01D027
:10497000032306E0FB68202283F84120002300E0A7
:10498000022318462037BD4680BD80B590B000AFE9
:10499000F860B9603B601346FB7150E0BB6CB3F14B
:1049A000FF3F4CD0BB6C002B07D0FCF7C9FE024682
:1049B0003B68D31ABA6C9A4241D2FB681B680C332D
:1049C000BB62BB6A53E8003F7B627B6A23F4D0730F
:1049D000FB63FB681B680C33FA6B7A633B63396BD0
:1049E0007A6B41E80023FB62FB6A002BE5D1FB6890
:1049F0001B6814337B617B6953E8003F3B613B6973
:104A000023F00103BB63FB681B681433BA6B3A6283
:104A1000FB61F9693A6A41E80023BB61BB69002B7D
:104A2000E5D1FB68202283F84120FB68202283F82F
:104A30004220FB68002283F8402003230FE0FB683C
:104A40001B681A68BB681340BA689A420CBF0123FE
:104A50000023DBB21A46FB799A429FD00023184606
:104A60004037BD4680BD000080B584B000AF78609F
:104A70007B681B681B6923F440517B68DA687B689C
:104A80001B680A431A617B689A687B681B691A4332
:104A90007B685B691343BB607B681B68DB6823F43E
:104AA000B05323F00C037A681268B9680B43D360E3
:104AB0007B681B685B6923F440717B689A697B683B
:104AC0001B680A435A617B681B682C4A934203D1D6
:104AD000FFF766FCF86002E0FFF74EFCF860FA684A
:104AE00013469B0013449A001A447B685B689B0042
:104AF000B2FBF3F3224AA2FB03235B091901FA6814
:104B000013469B0013449A001A447B685B689B0021
:104B1000B2FBF3F21A4BA3FB02035B09642000FB18
:104B200003F3D31A1B013233154AA2FB03235B099B
:104B300003F0F0031944FA6813469B0013449A00EB
:104B40001A447B685B689B00B2FBF3F20C4BA3FB3F
:104B500002035B09642000FB03F3D31A1B01323309
:104B6000074AA2FB03235B0903F00F027B681B6863
:104B70000A449A6000BF1037BD4680BD003801402E
:104B80001F85EB51002310B50446C0E90033C0E98E
:104B90000433836081814366C281836119460822A0
:104BA0005C3000F006F90D4B246263620C4BA3628B
:104BB0000C4BE3620C4B23630C4B9C4206D003F17D
:104BC0006802944202D0D0339C4205D104F15800CF
:104BD000BDE8104000F066B910BD00BF2D4D0008C3
:104BE0004F4D0008874D0008AB4D000834020020EF
:104BF000024A0349034800F069B800BF0C000020D6
:104C0000455700081800002041680C4B10B5994228
:104C1000044601D000F096FDA168094B994202D0EC
:104C2000204600F08FFDE168064B994204D02046F3
:104C3000BDE8104000F086BD10BD00BF340200206A
:104C40009C0200200403002010B50B4B0B4C0C4AB7
:104C500020461A6004210022FFF794FF04F1680047
:104C600001220921FFF78EFF04F1D0000222BDE8E6
:104C700010401221FFF786BF6C0300203402002091
:104C8000F14B0008014800F00EB900BF7503002089
:104C9000014800F009B900BF7503002010B50446B3
:104CA000FFF7F0FF236A1BB1BDE81040FFF7F0BF2C
:104CB000044B2362044B1B68002BF5D1FFF7C4FFA4
:104CC000F2E700BF094C00086C0300202DE9F8430F
:104CD0000746884614460026D4E90195B9F1010932
:104CE00005D52468002CF7D13046BDE8F883AB89A0
:104CF000012B07D9B5F90E30013303D029463846C8
:104D0000C04706436835E9E70FB407B5064904AB69
:104D1000086853F8042B8168019300F0E3F903B0AD
:104D20005DF804EB04B070476400002010B50C4639
:104D3000B1F90E1000F068F80028ABBF636DA389CD
:104D40001B1823F48053ACBF6365A38110BD2DE90C
:104D5000F0411F468B890546DB050C46164605D5F6
:104D600002230022B1F90E1000F03CF8A38932466C
:104D700023F48053A38128463B46B4F90E10BDE8C6
:104D8000F04100F053B810B50C46B1F90E1000F028
:104D900029F8431CA38915BF606523F4805343F4AD
:104DA0008053A38118BFA38110BDB1F90E1000F08C
:104DB00009B803460244934200D1704703F8011B2F
:104DC000F9E7000038B50023054D044608462B607E
:104DD000FCF7BAFB431C02D12B6803B1236038BD3A
:104DE0007003002038B50446084611460022054DE0
:104DF0002A601A46FCF7CCFB431C02D12B6803B196
:104E0000236038BD7003002038B5044608461146BB
:104E10000022054D2A601A46FCF75DFB431C02D1B7
:104E20002B6803B1236038BD7003002038B50446F9
:104E3000084611460022054D2A601A46FCF768FB19
:104E4000431C02D12B6803B1236038BD70030020DE
:104E5000014B1868704700BF6400002070B5002641
:104E60000C4D0D4C641BA410A64209D100F0CAFDE4
:104E700000260A4D0A4C641BA410A64205D170BD41
:104E800055F8043B98470136EEE755F8043B984740
:104E90000136F2E7AC5A0008AC5A0008AC5A0008D8
:104EA000B05A0008704770477047000038B5054693
:104EB000002940D051F8043C0C1F002BB8BFE41867
:104EC00000F0DCF81C4A136833B9636014602846AC
:104ED000BDE8384000F0D8B8A34208D920682118AE
:104EE0008B4201BF19685B6809182160EDE71A461B
:104EF0005B680BB1A342FAD911685018A0420BD1DC
:104F000020680144501883421160E0D118685B6842
:104F1000084410605360DAE702D90C232B60D6E70F
:104F2000206821188B4201BF19685B68091821604D
:104F300063605460CBE738BD7803002070B50E4E37
:104F40000C463168054611B900F0BAFC30602146C4
:104F5000284600F0B5FC431C0AD0C41C24F003040E
:104F6000A04207D0211A284600F0AAFC013001D146
:104F70004FF0FF34204670BD7C0300202DE9F8433C
:104F8000CD1C25F0030508350C2D38BF0C25002D50
:104F9000074601DBA94205D90C2300263B603046B9
:104FA000BDE8F883DFF8D08000F068F8D8F800306A
:104FB0001C465CBB29463846FFF7C0FF431C04462D
:104FC00055D1D8F800402646002E45D1002C48D0B7
:104FD00023683146384604EB030900F071FC814533
:104FE0003FD1216838466D1A2946FFF7A7FF0130E7
:104FF00037D023682B442360D8F80030002B38D0FA
:105000005A68A2422BD100225A600FE02268521B3C
:105010001FD40B2A17D96119A342256018BF596004
:10502000636808BFC8F8001062514B60384604F14D
:105030000B0600F029F826F00706231DF21AAED061
:105040009B1BA350ABE7A3426268DDD1C8F80020E8
:10505000ECE723466468ACE734467668B4E7134669
:10506000CCE70C2338463B6000F00EF897E725604C
:10507000DCE75B60FFDE00BF780300200148FFF73C
:1050800012BF00BF740300200148FFF70DBF00BF2F
:1050900074030020936810B4013B002B936007DA7F
:1050A0009469A34201DB0A2902D110BC00F072BB53
:1050B0001368581C10601970084610BC7047F8B58A
:1050C00006460F461446D518AC4201D1002007E031
:1050D0003A46304614F8011BFFF7DCFF431CF3D1BE
:1050E000F8BD00002DE9F04F0D46144698460646DF
:1050F0009DB018B1036A0BB9FFF7D0FD6B6ED907ED
:1051000005D4AB899A0502D4A86DFFF7CCFEAB8914
:105110001B0701D52B699BB92946304600F078FB67
:1051200070B16B6EDC0704D54FF0FF301DB0BDE8E9
:10513000F08FAB899805F7D4A86DFFF7B5FEF3E7BC
:105140000023099320238DF8293030234FF00109E3
:10515000CDF80C80DFF8AC818DF82A3023469A46D2
:1051600013F8012B0AB1252AF9D1BAEB040B0BD0A5
:105170005B46224629463046FFF7A1FF013000F08A
:10518000A980099A5A4409929AF80030002B00F03D
:10519000A18000234FF0FF32CDE905230AF1010A77
:1051A000049307938DF853301A935446052214F84C
:1051B000011B544800F094FB049AD8B9D10644BFAF
:1051C00020238DF85330130744BF2B238DF8533021
:1051D0009AF800302A2B15D0544600204FF00A0CC4
:1051E000079A214611F8013B303B092B4DD9B0B14C
:1051F000079214E0A0EB080309FA03F31343A24655
:105200000493D2E7039B191D1B680391002BBBBFBE
:105210005B4242F0020207930793B8BF04922378DF
:105220002E2B0CD163782A2B34D1039B02341A1D08
:105230001B680392002BB8BF4FF0FF330593DFF8D4
:10524000C8A003225046217800F04AFB38B1402222
:10525000049BA0EB0A00824013430134049314F82A
:10526000011B062229488DF8281000F039FB002880
:105270003FD0274B1BBB039B073323F007030833A7
:105280000393099B3B44099368E70C4601200CFB00
:105290000232A6E700234FF00A0C194601340593A9
:1052A000204610F8012B303A092A03D9002BC6D02A
:1052B0000591C4E7044601230CFB0121F0E703AB91
:1052C00000932A463046134B04A9AFF300800746EB
:1052D000781CD6D16B6ED90705D4AB899A0502D458
:1052E000A86DFFF7E1FDAB895B063FF51DAF09989F
:1052F0001CE703AB00932A463046064B04A900F096
:105300007DF8E4E7765A00087C5A0008805A0008C5
:1053100000000000BF5000082DE9F04716469946EE
:105320008A680B6907469342B8BF1346336091F809
:1053300043200C46DDF820800AB101333360236836
:10534000990642BF336802333360256815F00605BD
:1053500006D104F1190AE36832689B1AAB422BDCD0
:1053600094F84320131E226818BF0123920630D4FC
:105370004946384604F14302C047013023D0236830
:10538000226903F00603042B14BF002533684FF095
:10539000000608BFE56804F11A0408BFED1A54F8C6
:1053A000123C08BF25EAE5759342C4BF9B1AED186D
:1053B000B5421AD1002008E001235246494638463A
:1053C000C047013003D14FF0FF30BDE8F087013511
:1053D000C1E73020E11881F843005A1C94F84510C9
:1053E0002244023382F84310C2E701232246494691
:1053F0003846C0470130E6D00136D9E72DE9FF47EE
:105400000F7E9146782F80460C469A460C9D01F1FE
:10541000430207D8622F0AD8002F00F0D580582FFA
:1054200000F0C18004F1420584F842703AE0A7F12F
:105430006303152BF6D801A151F823F09554000809
:10544000A9540008255400082554000825540008D4
:1054500025540008A95400082554000825540008C4
:105460002554000825540008AF550008D5540008FD
:10547000695500082554000825540008D155000836
:1054800025540008D5540008255400082554000868
:10549000715500082B681A1D1B682A6004F142052B
:1054A00084F842300123A0E020682B68070603F14E
:1054B0000401296001D51E6803E04606FBD5B3F957
:1054C0000060002E03DA2D23764284F843300A234D
:1054D000594812E02B682068191D2960050601D57E
:1054E0001E6802E04106FBD51E886F2F0CBF082303
:1054F0000A235148002184F843106568002DA8BF95
:105500002168A560A4BF21F0040121600EB9002D1F
:105510004BD01546B6FBF3F103FB1167C75D05F8E9
:10552000017D3746BB420E46F4D9082B0BD12368C8
:10553000DE0708D5236961689942DEBF302305F88C
:10554000013C05F1FF35521B22614B462146404686
:10555000CDF800A003AAFFF7DFFE01304AD14FF0DB
:10556000FF3004B0BDE8F087236843F020032360D8
:105570007827324884F84570236829681F0651F857
:10558000046B02D45F0648BFB6B2DF0748BF43F0E2
:105590002003296048BF23601EB9236823F020033D
:1055A00023601023A6E72448E4E71546BDE72B68EF
:1055B0002668181D6169286035061B6801D51960C9
:1055C00002E07006FBD51980002315462361BCE775
:1055D0002B6800211A1D2A601D686268284600F0A9
:1055E0007FF908B1401B606063682361002384F881
:1055F0004330AAE72A46494640462369D04701304E
:10560000ADD023689B0713D4E068039B9842B8BFD2
:105610001846A6E70123324649464046D0470130A6
:105620009DD00135E36803995B1AAB42F2DCEBE7EE
:10563000002504F11906F5E7875A0008985A000872
:105640008A89F8B5054610070C4657D44B68002BDD
:1056500004DC0B6C002B01DC0020F8BDE66A002E98
:10566000FAD0002312F480522F68216A2B6032D0C6
:10567000606DA3895A0705D56368C01A636B0BB1C7
:10568000236CC01A00230246E66A2846216AB04706
:10569000431CA38906D129681D292BD8284A0A4111
:1056A000D60727D4002262602269D904226004D57B
:1056B000421C01D12B6803B96065616B2F60002922
:1056C000CAD004F14403994202D02846FFF7EEFB0A
:1056D00000206063C1E701232846B047411CC8D1C0
:1056E0002B68002BC5D01D2B01D0162B01D12F60AC
:1056F000B2E7A38943F04003A381AEE70F69002F0F
:10570000AAD0930718BF00230E6808BF4B69F61B89
:105710000F608B60002E9FDD33463A462846216A93
:10572000D4F828C0E047002806DCA3894FF0FF30FA
:1057300043F04003A38190E70744361AEAE700BF2D
:10574000FEFFBFDF38B50B6905460C4613B90025CF
:10575000284638BD18B1036A0BB9FFF79FFAB4F9B0
:105760000C30002BF3D0626ED00704D4990502D41C
:10577000A06DFFF798FB28462146FFF761FF636E97
:105780000546DA07E4D4A3899B05E1D4A06DFFF7B1
:105790008BFBDDE7F8B50E461446054618B1036AE3
:1057A0000BB9FFF77BFAA369A360A3891A0725D574
:1057B00023691BB323682269F6B2981A63693746D6
:1057C000834204DC21462846FFF7BCFFE0B9A3680A
:1057D000013BA36023685A1C22601E706269431C4F
:1057E0009A4204D0A389DB0706D50A2E04D12146AC
:1057F0002846FFF7A7FF38B93846F8BD21462846A6
:1058000000F006F80028D5D04FF0FF37F4E700008D
:1058100038B52A4B054618680C4618B1036A0BB90F
:10582000FFF73CFAA389B4F90C20180722D4D90653
:1058300007D409232B6042F040034FF0FF30A381CF
:1058400034E0580712D5616B41B104F14403994229
:1058500002D02846FFF72AFB00236363A38923F0C5
:105860002403A3810023636023692360A38943F099
:105870000803A38123694BB9A38903F42073B3F50B
:10588000007F03D02146284600F05DF8A089B4F9D6
:105890000C2010F001030AD00023A36063695B426F
:1058A000A361236943B910F08000C4D138BD8107DA
:1058B00058BF6369A360F4E70020F7E764000020A5
:1058C00038B50023054D044608462B60FBF76CFEF7
:1058D000431C02D12B6803B1236038BD7003002044
:1058E000034610B5C9B202449342184601D10020C4
:1058F00003E0047801338C42F6D110BD70B50C463C
:10590000B1F90E10154600291E4696B00CDAA3898F
:10591000002113F0800F0CBF4FF480634023002060
:1059200031602B6016B070BD6A4600F049F800285F
:10593000EDDB019901F47041A1F500535942594141
:105940004FF48063EBE78B8973B59D0706460C46E1
:1059500007D504F14703236023610123636102B08B
:1059600070BD6A4601ABFFF7C9FF00990546304696
:10597000FFF704FB48B9B4F90C309A05EFD423F0D3
:10598000030343F00203A381E3E7A389206043F00C
:105990008003A381009B20616361019B5BB1304662
:1059A000B4F90E1000F01EF828B1A38923F0030308
:1059B00043F00103A381A3891D43A581CFE7000024
:1059C00038B50023064D0446084611462B60FBF708
:1059D000C6FD431C02D12B6803B1236038BD00BF54
:1059E0007003002038B50023054D044608462B609F
:1059F000FBF7C4FD431C02D12B6803B1236038BD03
:105A000070030020F8B500BFF8BC08BC9E46704784
:0C5A1000F8B500BFF8BC08BC9E4670470B
:105A1C00423A2025640A0000433A2025640A00001B
:105A2C004144433A20256C640A0000000000000049
:105A3C000000000001020304060708090000000032
:105A4C000102030402030405060708090A0B0C0DE6
:105A5C000E0F1010010200000203040506070809CE
:105A6C000A0B0C0D0E0F10100102232D302B2000F1
:105A7C00686C4C00656667454647003031323334FC
:105A8C00353637383941424344454600303132339C
:105A9C00343536373839616263646566000000005E
:045AAC0035010008B8
:045AB00011010008D8
:105AB4000024F400100000000100000000000000B9
:105AC4000300000034020020000000003402002023
